{
  "contractName": "ParkingBooks",
  "abi": [
    {
      "inputs": [],
      "stateMutability": "nonpayable",
      "type": "constructor"
    },
    {
      "anonymous": false,
      "inputs": [
        {
          "indexed": true,
          "internalType": "address",
          "name": "oldAdmin",
          "type": "address"
        },
        {
          "indexed": true,
          "internalType": "address",
          "name": "newAdmin",
          "type": "address"
        }
      ],
      "name": "AdminSet",
      "type": "event"
    },
    {
      "inputs": [
        {
          "internalType": "address",
          "name": "",
          "type": "address"
        },
        {
          "internalType": "uint256",
          "name": "",
          "type": "uint256"
        }
      ],
      "name": "owners",
      "outputs": [
        {
          "internalType": "address payable",
          "name": "owner",
          "type": "address"
        },
        {
          "internalType": "address payable",
          "name": "user",
          "type": "address"
        },
        {
          "internalType": "uint256",
          "name": "price",
          "type": "uint256"
        },
        {
          "internalType": "uint256",
          "name": "deposit",
          "type": "uint256"
        },
        {
          "internalType": "bool",
          "name": "returnToUser",
          "type": "bool"
        }
      ],
      "stateMutability": "view",
      "type": "function",
      "constant": true
    },
    {
      "inputs": [
        {
          "internalType": "address",
          "name": "",
          "type": "address"
        }
      ],
      "name": "ownsCount",
      "outputs": [
        {
          "internalType": "uint256",
          "name": "",
          "type": "uint256"
        }
      ],
      "stateMutability": "view",
      "type": "function",
      "constant": true
    },
    {
      "inputs": [
        {
          "internalType": "uint256",
          "name": "",
          "type": "uint256"
        }
      ],
      "name": "parkings",
      "outputs": [
        {
          "internalType": "uint256",
          "name": "id",
          "type": "uint256"
        },
        {
          "internalType": "string",
          "name": "title",
          "type": "string"
        },
        {
          "internalType": "uint256",
          "name": "score",
          "type": "uint256"
        },
        {
          "internalType": "bool",
          "name": "electric_support",
          "type": "bool"
        },
        {
          "internalType": "bool",
          "name": "roof",
          "type": "bool"
        },
        {
          "internalType": "bool",
          "name": "garage",
          "type": "bool"
        },
        {
          "internalType": "uint256",
          "name": "price",
          "type": "uint256"
        },
        {
          "internalType": "uint256",
          "name": "deposit",
          "type": "uint256"
        },
        {
          "internalType": "address payable",
          "name": "owner",
          "type": "address"
        },
        {
          "internalType": "bool",
          "name": "enabled",
          "type": "bool"
        },
        {
          "components": [
            {
              "internalType": "uint256",
              "name": "waitReserve",
              "type": "uint256"
            },
            {
              "internalType": "uint256",
              "name": "endReserve",
              "type": "uint256"
            },
            {
              "internalType": "uint256",
              "name": "waitLease",
              "type": "uint256"
            },
            {
              "internalType": "uint256",
              "name": "endLease",
              "type": "uint256"
            }
          ],
          "internalType": "struct ParkingBooks.ParkingTime",
          "name": "time",
          "type": "tuple"
        }
      ],
      "stateMutability": "view",
      "type": "function",
      "constant": true
    },
    {
      "inputs": [
        {
          "internalType": "address",
          "name": "",
          "type": "address"
        }
      ],
      "name": "users",
      "outputs": [
        {
          "internalType": "uint256",
          "name": "parking_id",
          "type": "uint256"
        },
        {
          "internalType": "bool",
          "name": "hasAccess",
          "type": "bool"
        },
        {
          "internalType": "bool",
          "name": "leased",
          "type": "bool"
        },
        {
          "internalType": "address payable",
          "name": "user",
          "type": "address"
        }
      ],
      "stateMutability": "view",
      "type": "function",
      "constant": true
    },
    {
      "inputs": [],
      "name": "index",
      "outputs": [
        {
          "components": [
            {
              "internalType": "uint256",
              "name": "id",
              "type": "uint256"
            },
            {
              "internalType": "string",
              "name": "title",
              "type": "string"
            },
            {
              "internalType": "int256[]",
              "name": "location",
              "type": "int256[]"
            },
            {
              "internalType": "uint256",
              "name": "score",
              "type": "uint256"
            },
            {
              "internalType": "uint256[]",
              "name": "working_hours",
              "type": "uint256[]"
            },
            {
              "internalType": "bool",
              "name": "electric_support",
              "type": "bool"
            },
            {
              "internalType": "bool",
              "name": "roof",
              "type": "bool"
            },
            {
              "internalType": "bool",
              "name": "garage",
              "type": "bool"
            },
            {
              "internalType": "uint256",
              "name": "price",
              "type": "uint256"
            },
            {
              "internalType": "uint256",
              "name": "deposit",
              "type": "uint256"
            },
            {
              "internalType": "address payable",
              "name": "owner",
              "type": "address"
            },
            {
              "internalType": "bool",
              "name": "enabled",
              "type": "bool"
            },
            {
              "components": [
                {
                  "internalType": "uint256",
                  "name": "waitReserve",
                  "type": "uint256"
                },
                {
                  "internalType": "uint256",
                  "name": "endReserve",
                  "type": "uint256"
                },
                {
                  "internalType": "uint256",
                  "name": "waitLease",
                  "type": "uint256"
                },
                {
                  "internalType": "uint256",
                  "name": "endLease",
                  "type": "uint256"
                }
              ],
              "internalType": "struct ParkingBooks.ParkingTime",
              "name": "time",
              "type": "tuple"
            }
          ],
          "internalType": "struct ParkingBooks.Parking[]",
          "name": "",
          "type": "tuple[]"
        }
      ],
      "stateMutability": "view",
      "type": "function",
      "constant": true
    },
    {
      "inputs": [],
      "name": "indexByOwner",
      "outputs": [
        {
          "components": [
            {
              "internalType": "uint256",
              "name": "id",
              "type": "uint256"
            },
            {
              "internalType": "string",
              "name": "title",
              "type": "string"
            },
            {
              "internalType": "int256[]",
              "name": "location",
              "type": "int256[]"
            },
            {
              "internalType": "uint256",
              "name": "score",
              "type": "uint256"
            },
            {
              "internalType": "uint256[]",
              "name": "working_hours",
              "type": "uint256[]"
            },
            {
              "internalType": "bool",
              "name": "electric_support",
              "type": "bool"
            },
            {
              "internalType": "bool",
              "name": "roof",
              "type": "bool"
            },
            {
              "internalType": "bool",
              "name": "garage",
              "type": "bool"
            },
            {
              "internalType": "uint256",
              "name": "price",
              "type": "uint256"
            },
            {
              "internalType": "uint256",
              "name": "deposit",
              "type": "uint256"
            },
            {
              "internalType": "address payable",
              "name": "owner",
              "type": "address"
            },
            {
              "internalType": "bool",
              "name": "enabled",
              "type": "bool"
            },
            {
              "components": [
                {
                  "internalType": "uint256",
                  "name": "waitReserve",
                  "type": "uint256"
                },
                {
                  "internalType": "uint256",
                  "name": "endReserve",
                  "type": "uint256"
                },
                {
                  "internalType": "uint256",
                  "name": "waitLease",
                  "type": "uint256"
                },
                {
                  "internalType": "uint256",
                  "name": "endLease",
                  "type": "uint256"
                }
              ],
              "internalType": "struct ParkingBooks.ParkingTime",
              "name": "time",
              "type": "tuple"
            }
          ],
          "internalType": "struct ParkingBooks.Parking[]",
          "name": "",
          "type": "tuple[]"
        }
      ],
      "stateMutability": "view",
      "type": "function",
      "constant": true
    },
    {
      "inputs": [
        {
          "internalType": "uint256",
          "name": "id",
          "type": "uint256"
        }
      ],
      "name": "show",
      "outputs": [
        {
          "components": [
            {
              "internalType": "uint256",
              "name": "id",
              "type": "uint256"
            },
            {
              "internalType": "string",
              "name": "title",
              "type": "string"
            },
            {
              "internalType": "int256[]",
              "name": "location",
              "type": "int256[]"
            },
            {
              "internalType": "uint256",
              "name": "score",
              "type": "uint256"
            },
            {
              "internalType": "uint256[]",
              "name": "working_hours",
              "type": "uint256[]"
            },
            {
              "internalType": "bool",
              "name": "electric_support",
              "type": "bool"
            },
            {
              "internalType": "bool",
              "name": "roof",
              "type": "bool"
            },
            {
              "internalType": "bool",
              "name": "garage",
              "type": "bool"
            },
            {
              "internalType": "uint256",
              "name": "price",
              "type": "uint256"
            },
            {
              "internalType": "uint256",
              "name": "deposit",
              "type": "uint256"
            },
            {
              "internalType": "address payable",
              "name": "owner",
              "type": "address"
            },
            {
              "internalType": "bool",
              "name": "enabled",
              "type": "bool"
            },
            {
              "components": [
                {
                  "internalType": "uint256",
                  "name": "waitReserve",
                  "type": "uint256"
                },
                {
                  "internalType": "uint256",
                  "name": "endReserve",
                  "type": "uint256"
                },
                {
                  "internalType": "uint256",
                  "name": "waitLease",
                  "type": "uint256"
                },
                {
                  "internalType": "uint256",
                  "name": "endLease",
                  "type": "uint256"
                }
              ],
              "internalType": "struct ParkingBooks.ParkingTime",
              "name": "time",
              "type": "tuple"
            }
          ],
          "internalType": "struct ParkingBooks.Parking",
          "name": "",
          "type": "tuple"
        }
      ],
      "stateMutability": "view",
      "type": "function",
      "constant": true
    },
    {
      "inputs": [],
      "name": "show",
      "outputs": [
        {
          "components": [
            {
              "internalType": "uint256",
              "name": "id",
              "type": "uint256"
            },
            {
              "internalType": "string",
              "name": "title",
              "type": "string"
            },
            {
              "internalType": "int256[]",
              "name": "location",
              "type": "int256[]"
            },
            {
              "internalType": "uint256",
              "name": "score",
              "type": "uint256"
            },
            {
              "internalType": "uint256[]",
              "name": "working_hours",
              "type": "uint256[]"
            },
            {
              "internalType": "bool",
              "name": "electric_support",
              "type": "bool"
            },
            {
              "internalType": "bool",
              "name": "roof",
              "type": "bool"
            },
            {
              "internalType": "bool",
              "name": "garage",
              "type": "bool"
            },
            {
              "internalType": "uint256",
              "name": "price",
              "type": "uint256"
            },
            {
              "internalType": "uint256",
              "name": "deposit",
              "type": "uint256"
            },
            {
              "internalType": "address payable",
              "name": "owner",
              "type": "address"
            },
            {
              "internalType": "bool",
              "name": "enabled",
              "type": "bool"
            },
            {
              "components": [
                {
                  "internalType": "uint256",
                  "name": "waitReserve",
                  "type": "uint256"
                },
                {
                  "internalType": "uint256",
                  "name": "endReserve",
                  "type": "uint256"
                },
                {
                  "internalType": "uint256",
                  "name": "waitLease",
                  "type": "uint256"
                },
                {
                  "internalType": "uint256",
                  "name": "endLease",
                  "type": "uint256"
                }
              ],
              "internalType": "struct ParkingBooks.ParkingTime",
              "name": "time",
              "type": "tuple"
            }
          ],
          "internalType": "struct ParkingBooks.Parking",
          "name": "",
          "type": "tuple"
        }
      ],
      "stateMutability": "view",
      "type": "function",
      "constant": true
    },
    {
      "inputs": [],
      "name": "testStore",
      "outputs": [],
      "stateMutability": "nonpayable",
      "type": "function"
    },
    {
      "inputs": [
        {
          "internalType": "string",
          "name": "_title",
          "type": "string"
        },
        {
          "internalType": "int256[]",
          "name": "_location",
          "type": "int256[]"
        },
        {
          "internalType": "uint256[]",
          "name": "_working_hours",
          "type": "uint256[]"
        },
        {
          "internalType": "bool",
          "name": "_electric_support",
          "type": "bool"
        },
        {
          "internalType": "bool",
          "name": "_roof",
          "type": "bool"
        },
        {
          "internalType": "bool",
          "name": "_garage",
          "type": "bool"
        },
        {
          "internalType": "uint256",
          "name": "_price",
          "type": "uint256"
        },
        {
          "internalType": "uint256",
          "name": "_deposit",
          "type": "uint256"
        },
        {
          "internalType": "bool",
          "name": "_enabled",
          "type": "bool"
        },
        {
          "components": [
            {
              "internalType": "uint256",
              "name": "waitReserve",
              "type": "uint256"
            },
            {
              "internalType": "uint256",
              "name": "endReserve",
              "type": "uint256"
            },
            {
              "internalType": "uint256",
              "name": "waitLease",
              "type": "uint256"
            },
            {
              "internalType": "uint256",
              "name": "endLease",
              "type": "uint256"
            }
          ],
          "internalType": "struct ParkingBooks.ParkingTime",
          "name": "_time",
          "type": "tuple"
        }
      ],
      "name": "store",
      "outputs": [],
      "stateMutability": "nonpayable",
      "type": "function"
    },
    {
      "inputs": [
        {
          "internalType": "uint256",
          "name": "id",
          "type": "uint256"
        },
        {
          "internalType": "string",
          "name": "_title",
          "type": "string"
        },
        {
          "internalType": "int256[]",
          "name": "_location",
          "type": "int256[]"
        },
        {
          "internalType": "uint256[]",
          "name": "_working_hours",
          "type": "uint256[]"
        },
        {
          "internalType": "bool",
          "name": "_electric_support",
          "type": "bool"
        },
        {
          "internalType": "bool",
          "name": "_roof",
          "type": "bool"
        },
        {
          "internalType": "bool",
          "name": "_garage",
          "type": "bool"
        },
        {
          "internalType": "uint256",
          "name": "_price",
          "type": "uint256"
        },
        {
          "internalType": "uint256",
          "name": "_deposit",
          "type": "uint256"
        },
        {
          "components": [
            {
              "internalType": "uint256",
              "name": "waitReserve",
              "type": "uint256"
            },
            {
              "internalType": "uint256",
              "name": "endReserve",
              "type": "uint256"
            },
            {
              "internalType": "uint256",
              "name": "waitLease",
              "type": "uint256"
            },
            {
              "internalType": "uint256",
              "name": "endLease",
              "type": "uint256"
            }
          ],
          "internalType": "struct ParkingBooks.ParkingTime",
          "name": "_time",
          "type": "tuple"
        }
      ],
      "name": "update",
      "outputs": [],
      "stateMutability": "nonpayable",
      "type": "function"
    },
    {
      "inputs": [
        {
          "internalType": "uint256",
          "name": "id",
          "type": "uint256"
        }
      ],
      "name": "reserve",
      "outputs": [],
      "stateMutability": "nonpayable",
      "type": "function"
    },
    {
      "inputs": [
        {
          "internalType": "uint256",
          "name": "id",
          "type": "uint256"
        }
      ],
      "name": "reserve_end",
      "outputs": [],
      "stateMutability": "nonpayable",
      "type": "function"
    },
    {
      "inputs": [],
      "name": "reserve_end",
      "outputs": [],
      "stateMutability": "nonpayable",
      "type": "function"
    },
    {
      "inputs": [
        {
          "internalType": "uint256",
          "name": "id",
          "type": "uint256"
        }
      ],
      "name": "lease",
      "outputs": [],
      "stateMutability": "payable",
      "type": "function",
      "payable": true
    },
    {
      "inputs": [
        {
          "internalType": "uint256",
          "name": "id",
          "type": "uint256"
        }
      ],
      "name": "leaseUpdate",
      "outputs": [],
      "stateMutability": "payable",
      "type": "function",
      "payable": true
    },
    {
      "inputs": [
        {
          "internalType": "uint256",
          "name": "id",
          "type": "uint256"
        },
        {
          "internalType": "uint256",
          "name": "_score",
          "type": "uint256"
        }
      ],
      "name": "lease_end",
      "outputs": [],
      "stateMutability": "nonpayable",
      "type": "function"
    },
    {
      "inputs": [],
      "name": "resolveFunds",
      "outputs": [],
      "stateMutability": "nonpayable",
      "type": "function"
    },
    {
      "inputs": [
        {
          "internalType": "uint256",
          "name": "id",
          "type": "uint256"
        }
      ],
      "name": "trunOnOff",
      "outputs": [],
      "stateMutability": "nonpayable",
      "type": "function"
    },
    {
      "inputs": [
        {
          "internalType": "uint256",
          "name": "id",
          "type": "uint256"
        }
      ],
      "name": "checkIfNotInUse",
      "outputs": [
        {
          "internalType": "bool",
          "name": "",
          "type": "bool"
        }
      ],
      "stateMutability": "view",
      "type": "function",
      "constant": true
    },
    {
      "inputs": [],
      "name": "checkStatus",
      "outputs": [
        {
          "internalType": "string",
          "name": "",
          "type": "string"
        }
      ],
      "stateMutability": "view",
      "type": "function",
      "constant": true
    }
  ],
  "bytecode": "0x60806040526000600555600060065534801561001a57600080fd5b50336000806101000a81548173ffffffffffffffffffffffffffffffffffffffff021916908373ffffffffffffffffffffffffffffffffffffffff16021790555060008054906101000a900473ffffffffffffffffffffffffffffffffffffffff1673ffffffffffffffffffffffffffffffffffffffff16600073ffffffffffffffffffffffffffffffffffffffff167fbf265e8326285a2747e33e54d5945f7111f2b5edb826eb8c08d4677779b3ff9760405160405180910390a36143ca806100e56000396000f3fe60806040526004361061012a5760003560e01c8063a87430ba116100ab578063cc80f6f31161006f578063cc80f6f3146103d1578063ce307a46146103fc578063d4c0923014610425578063e704fb4e1461044e578063e7e0ecae14610465578063fb473fa7146104a25761012a565b8063a87430ba146102fd578063b66fe3a01461033d578063bcc5f20714610354578063c1864fd014610391578063c7dabead146103a85761012a565b80636ccd41d2116100f25780636ccd41d21461021157806370742c441461022d578063819b25ba146102565780638b514ed71461027f5780639b3e2787146102bc5761012a565b8063097cbfe51461012f5780630d34b7f6146101765780632986c0e51461019f5780632e352497146101ca5780633b7104f2146101e6575b600080fd5b34801561013b57600080fd5b506101566004803603810190610151919061372a565b6104cd565b60405161016d9b9a9998979695949392919061404e565b60405180910390f35b34801561018257600080fd5b5061019d60048036038101906101989190613607565b610645565b005b3480156101ab57600080fd5b506101b46108c7565b6040516101c19190613f0d565b60405180910390f35b6101e460048036038101906101df919061372a565b610bf0565b005b3480156101f257600080fd5b506101fb611043565b6040516102089190613f4a565b60405180910390f35b61022b6004803603810190610226919061372a565b611269565b005b34801561023957600080fd5b50610254600480360381019061024f919061372a565b6114d4565b005b34801561026257600080fd5b5061027d6004803603810190610278919061372a565b6116dd565b005b34801561028b57600080fd5b506102a660048036038101906102a1919061372a565b61185a565b6040516102b39190613fcc565b60405180910390f35b3480156102c857600080fd5b506102e360048036038101906102de91906135cb565b611b00565b6040516102f4959493929190613eba565b60405180910390f35b34801561030957600080fd5b50610324600480360381019061031f91906135a2565b611b90565b6040516103349493929190614009565b60405180910390f35b34801561034957600080fd5b50610352611bfa565b005b34801561036057600080fd5b5061037b600480360381019061037691906135a2565b611feb565b6040516103889190613fee565b60405180910390f35b34801561039d57600080fd5b506103a6612003565b005b3480156103b457600080fd5b506103cf60048036038101906103ca9190613753565b612398565b005b3480156103dd57600080fd5b506103e66125d3565b6040516103f39190613fcc565b60405180910390f35b34801561040857600080fd5b50610423600480360381019061041e919061372a565b6128b9565b005b34801561043157600080fd5b5061044c60048036038101906104479190613876565b6129c6565b005b34801561045a57600080fd5b50610463612bce565b005b34801561047157600080fd5b5061048c6004803603810190610487919061372a565b612d2a565b6040516104999190613f2f565b60405180910390f35b3480156104ae57600080fd5b506104b7612d9f565b6040516104c49190613f0d565b60405180910390f35b6001602052806000526040600020600091509050806000015490806001018054600181600116156101000203166002900480601f01602080910402602001604051908101604052809291908181526020018280546001816001161561010002031660029004801561057f5780601f106105545761010080835404028352916020019161057f565b820191906000526020600020905b81548152906001019060200180831161056257829003601f168201915b5050505050908060030154908060050160009054906101000a900460ff16908060050160019054906101000a900460ff16908060050160029054906101000a900460ff16908060060154908060070154908060080160009054906101000a900473ffffffffffffffffffffffffffffffffffffffff16908060080160149054906101000a900460ff16908060090160405180608001604052908160008201548152602001600182015481526020016002820154815260200160038201548152505090508b565b604051806101a0016040528060055481526020018b81526020018a8152602001600581526020018981526020018815158152602001871515815260200186151581526020016001860281526020016001850281526020013373ffffffffffffffffffffffffffffffffffffffff1681526020018315158152602001828152506001600060055481526020019081526020016000206000820151816000015560208201518160010190805190602001906106ff929190613178565b50604082015181600201908051906020019061071c9291906131f8565b50606082015181600301556080820151816004019080519060200190610743929190613245565b5060a08201518160050160006101000a81548160ff02191690831515021790555060c08201518160050160016101000a81548160ff02191690831515021790555060e08201518160050160026101000a81548160ff021916908315150217905550610100820151816006015561012082015181600701556101408201518160080160006101000a81548173ffffffffffffffffffffffffffffffffffffffff021916908373ffffffffffffffffffffffffffffffffffffffff1602179055506101608201518160080160146101000a81548160ff02191690831515021790555061018082015181600901600082015181600001556020820151816001015560408201518160020155606082015181600301555050905050600560008154809291906001019190505550600460003373ffffffffffffffffffffffffffffffffffffffff1673ffffffffffffffffffffffffffffffffffffffff1681526020019081526020016000206000815480929190600101919050555050505050505050505050565b60608060055467ffffffffffffffff811180156108e357600080fd5b5060405190808252806020026020018201604052801561091d57816020015b61090a613292565b8152602001906001900390816109025790505b50905060005b600554811015610be85760016000828152602001908152602001600020604051806101a001604052908160008201548152602001600182018054600181600116156101000203166002900480601f0160208091040260200160405190810160405280929190818152602001828054600181600116156101000203166002900480156109ef5780601f106109c4576101008083540402835291602001916109ef565b820191906000526020600020905b8154815290600101906020018083116109d257829003601f168201915b5050505050815260200160028201805480602002602001604051908101604052809291908181526020018280548015610a4757602002820191906000526020600020905b815481526020019060010190808311610a33575b505050505081526020016003820154815260200160048201805480602002602001604051908101604052809291908181526020018280548015610aa957602002820191906000526020600020905b815481526020019060010190808311610a95575b505050505081526020016005820160009054906101000a900460ff161515151581526020016005820160019054906101000a900460ff161515151581526020016005820160029054906101000a900460ff1615151515815260200160068201548152602001600782015481526020016008820160009054906101000a900473ffffffffffffffffffffffffffffffffffffffff1673ffffffffffffffffffffffffffffffffffffffff1673ffffffffffffffffffffffffffffffffffffffff1681526020016008820160149054906101000a900460ff161515151581526020016009820160405180608001604052908160008201548152602001600182015481526020016002820154815260200160038201548152505081525050828281518110610bd057fe5b60200260200101819052508080600101915050610923565b508091505090565b806001600082815260200190815260200160002060070154600160008381526020019081526020016000206006015401341015610c62576040517f08c379a0000000000000000000000000000000000000000000000000000000008152600401610c5990613f8c565b60405180910390fd5b610c6b82612d2a565b80610cb7575081600260003373ffffffffffffffffffffffffffffffffffffffff1673ffffffffffffffffffffffffffffffffffffffff16815260200190815260200160002060000154145b610cc057600080fd5b6040518060a001604052806001600085815260200190815260200160002060080160009054906101000a900473ffffffffffffffffffffffffffffffffffffffff1673ffffffffffffffffffffffffffffffffffffffff1681526020013373ffffffffffffffffffffffffffffffffffffffff168152602001600160008581526020019081526020016000206006015481526020016001600085815260200190815260200160002060070154815260200160011515815250600360006001600086815260200190815260200160002060080160009054906101000a900473ffffffffffffffffffffffffffffffffffffffff1673ffffffffffffffffffffffffffffffffffffffff1673ffffffffffffffffffffffffffffffffffffffff1681526020019081526020016000206000600654815260200190815260200160002060008201518160000160006101000a81548173ffffffffffffffffffffffffffffffffffffffff021916908373ffffffffffffffffffffffffffffffffffffffff16021790555060208201518160010160006101000a81548173ffffffffffffffffffffffffffffffffffffffff021916908373ffffffffffffffffffffffffffffffffffffffff160217905550604082015181600201556060820151816003015560808201518160040160006101000a81548160ff02191690831515021790555090505060066000815480929190600101919050555060016000838152602001908152602001600020600901600201544201600160008481526020019081526020016000206009016003018190555060405180608001604052808381526020016001151581526020016001151581526020013373ffffffffffffffffffffffffffffffffffffffff16815250600260003373ffffffffffffffffffffffffffffffffffffffff1673ffffffffffffffffffffffffffffffffffffffff1681526020019081526020016000206000820151816000015560208201518160010160006101000a81548160ff02191690831515021790555060408201518160010160016101000a81548160ff02191690831515021790555060608201518160010160026101000a81548173ffffffffffffffffffffffffffffffffffffffff021916908373ffffffffffffffffffffffffffffffffffffffff160217905550905050600060016000848152602001908152602001600020600901600101819055505050565b6060600260003373ffffffffffffffffffffffffffffffffffffffff1673ffffffffffffffffffffffffffffffffffffffff16815260200190815260200160002060010160009054906101000a900460ff161561122d576000600260003373ffffffffffffffffffffffffffffffffffffffff1673ffffffffffffffffffffffffffffffffffffffff168152602001908152602001600020600001549050600060016000838152602001908152602001600020600901600101541180156111225750600160008281526020019081526020016000206009016001015442105b15611165576040518060400160405280600981526020017f696e526573657276650000000000000000000000000000000000000000000000815250915050611266565b600060016000600260003373ffffffffffffffffffffffffffffffffffffffff1673ffffffffffffffffffffffffffffffffffffffff168152602001908152602001600020600001548152602001908152602001600020600901600301541180156111e85750600160008281526020019081526020016000206009016003015442105b1561122b576040518060400160405280600781526020017f696e4c6561736500000000000000000000000000000000000000000000000000815250915050611266565b505b6040518060400160405280600581526020017f696e4d617000000000000000000000000000000000000000000000000000000081525090505b90565b8060016000828152602001908152602001600020600701546001600083815260200190815260200160002060060154013410156112db576040517f08c379a00000000000000000000000000000000000000000000000000000000081526004016112d290613f8c565b60405180910390fd5b6112e482612d2a565b80611330575081600260003373ffffffffffffffffffffffffffffffffffffffff1673ffffffffffffffffffffffffffffffffffffffff16815260200190815260200160002060000154145b61133957600080fd5b6001600083815260200190815260200160002060060154600360006001600086815260200190815260200160002060080160009054906101000a900473ffffffffffffffffffffffffffffffffffffffff1673ffffffffffffffffffffffffffffffffffffffff1673ffffffffffffffffffffffffffffffffffffffff16815260200190815260200160002060006006548152602001908152602001600020600201600082825401925050819055506001600083815260200190815260200160002060070154600360006001600086815260200190815260200160002060080160009054906101000a900473ffffffffffffffffffffffffffffffffffffffff1673ffffffffffffffffffffffffffffffffffffffff1673ffffffffffffffffffffffffffffffffffffffff16815260200190815260200160002060006006548152602001908152602001600020600301600082825401925050819055506001600083815260200190815260200160002060090160020154420160016000848152602001908152602001600020600901600301819055505050565b806114de81612d2a565b80611582575080600260003373ffffffffffffffffffffffffffffffffffffffff1673ffffffffffffffffffffffffffffffffffffffff168152602001908152602001600020600001541480156115815750600260003373ffffffffffffffffffffffffffffffffffffffff1673ffffffffffffffffffffffffffffffffffffffff16815260200190815260200160002060010160009054906101000a900460ff165b5b6115c1576040517f08c379a00000000000000000000000000000000000000000000000000000000081526004016115b890613fac565b60405180910390fd5b60001515600260003373ffffffffffffffffffffffffffffffffffffffff1673ffffffffffffffffffffffffffffffffffffffff16815260200190815260200160002060010160019054906101000a900460ff1615151461162157600080fd5b60006001600084815260200190815260200160002060090160010181905550600260003373ffffffffffffffffffffffffffffffffffffffff1673ffffffffffffffffffffffffffffffffffffffff1681526020019081526020016000206000808201600090556001820160006101000a81549060ff02191690556001820160016101000a81549060ff02191690556001820160026101000a81549073ffffffffffffffffffffffffffffffffffffffff021916905550505050565b6116e681612d2a565b6116ef57600080fd5b60016000828152602001908152602001600020600901600001544201600160008381526020019081526020016000206009016001018190555060405180608001604052808281526020016001151581526020016000151581526020013373ffffffffffffffffffffffffffffffffffffffff16815250600260003373ffffffffffffffffffffffffffffffffffffffff1673ffffffffffffffffffffffffffffffffffffffff1681526020019081526020016000206000820151816000015560208201518160010160006101000a81548160ff02191690831515021790555060408201518160010160016101000a81548160ff02191690831515021790555060608201518160010160026101000a81548173ffffffffffffffffffffffffffffffffffffffff021916908373ffffffffffffffffffffffffffffffffffffffff1602179055509050506000600160008381526020019081526020016000206009016003018190555050565b611862613292565b60016000838152602001908152602001600020604051806101a001604052908160008201548152602001600182018054600181600116156101000203166002900480601f0160208091040260200160405190810160405280929190818152602001828054600181600116156101000203166002900480156119245780601f106118f957610100808354040283529160200191611924565b820191906000526020600020905b81548152906001019060200180831161190757829003601f168201915b505050505081526020016002820180548060200260200160405190810160405280929190818152602001828054801561197c57602002820191906000526020600020905b815481526020019060010190808311611968575b5050505050815260200160038201548152602001600482018054806020026020016040519081016040528092919081815260200182805480156119de57602002820191906000526020600020905b8154815260200190600101908083116119ca575b505050505081526020016005820160009054906101000a900460ff161515151581526020016005820160019054906101000a900460ff161515151581526020016005820160029054906101000a900460ff1615151515815260200160068201548152602001600782015481526020016008820160009054906101000a900473ffffffffffffffffffffffffffffffffffffffff1673ffffffffffffffffffffffffffffffffffffffff1673ffffffffffffffffffffffffffffffffffffffff1681526020016008820160149054906101000a900460ff1615151515815260200160098201604051806080016040529081600082015481526020016001820154815260200160028201548152602001600382015481525050815250509050919050565b6003602052816000526040600020602052806000526040600020600091509150508060000160009054906101000a900473ffffffffffffffffffffffffffffffffffffffff16908060010160009054906101000a900473ffffffffffffffffffffffffffffffffffffffff16908060020154908060030154908060040160009054906101000a900460ff16905085565b60026020528060005260406000206000915090508060000154908060010160009054906101000a900460ff16908060010160019054906101000a900460ff16908060010160029054906101000a900473ffffffffffffffffffffffffffffffffffffffff16905084565b6060600267ffffffffffffffff81118015611c1457600080fd5b50604051908082528060200260200182016040528015611c435781602001602082028036833780820191505090505b509050601481600081518110611c5557fe5b602002602001018181525050601e81600181518110611c7057fe5b6020026020010181815250506060600267ffffffffffffffff81118015611c9657600080fd5b50604051908082528060200260200182016040528015611cc55781602001602082028036833780820191505090505b509050600881600081518110611cd757fe5b602002602001018181525050601281600181518110611cf257fe5b602002602001018181525050611d0661331e565b60405180608001604052806014815260200160008152602001603c815260200160008152509050604051806101a0016040528060055481526020016040518060400160405280600481526020017f5465737400000000000000000000000000000000000000000000000000000000815250815260200184815260200160058152602001838152602001600015158152602001600015158152602001600015158152602001670de0b6b3a76400008152602001671bc16d674ec8000081526020013373ffffffffffffffffffffffffffffffffffffffff16815260200160011515815260200182815250600160006005548152602001908152602001600020600082015181600001556020820151816001019080519060200190611e2a929190613178565b506040820151816002019080519060200190611e479291906131f8565b50606082015181600301556080820151816004019080519060200190611e6e929190613245565b5060a08201518160050160006101000a81548160ff02191690831515021790555060c08201518160050160016101000a81548160ff02191690831515021790555060e08201518160050160026101000a81548160ff021916908315150217905550610100820151816006015561012082015181600701556101408201518160080160006101000a81548173ffffffffffffffffffffffffffffffffffffffff021916908373ffffffffffffffffffffffffffffffffffffffff1602179055506101608201518160080160146101000a81548160ff02191690831515021790555061018082015181600901600082015181600001556020820151816001015560408201518160020155606082015181600301555050905050600560008154809291906001019190505550600460003373ffffffffffffffffffffffffffffffffffffffff1673ffffffffffffffffffffffffffffffffffffffff16815260200190815260200160002060008154809291906001019190505550505050565b60046020528060005260406000206000915090505481565b60005b600654811015612395573373ffffffffffffffffffffffffffffffffffffffff166108fc600360003373ffffffffffffffffffffffffffffffffffffffff1673ffffffffffffffffffffffffffffffffffffffff1681526020019081526020016000206000848152602001908152602001600020600201549081150290604051600060405180830381858888f193505050501580156120a9573d6000803e3d6000fd5b50600360003373ffffffffffffffffffffffffffffffffffffffff1673ffffffffffffffffffffffffffffffffffffffff168152602001908152602001600020600082815260200190815260200160002060010160009054906101000a900473ffffffffffffffffffffffffffffffffffffffff1673ffffffffffffffffffffffffffffffffffffffff166108fc600360003373ffffffffffffffffffffffffffffffffffffffff1673ffffffffffffffffffffffffffffffffffffffff1681526020019081526020016000206000848152602001908152602001600020600301549081150290604051600060405180830381858888f193505050501580156121b6573d6000803e3d6000fd5b50600360003373ffffffffffffffffffffffffffffffffffffffff1673ffffffffffffffffffffffffffffffffffffffff1681526020019081526020016000206000828152602001908152602001600020600080820160006101000a81549073ffffffffffffffffffffffffffffffffffffffff02191690556001820160006101000a81549073ffffffffffffffffffffffffffffffffffffffff0219169055600282016000905560038201600090556004820160006101000a81549060ff0219169055505060026000600360003373ffffffffffffffffffffffffffffffffffffffff1673ffffffffffffffffffffffffffffffffffffffff168152602001908152602001600020600084815260200190815260200160002060010160009054906101000a900473ffffffffffffffffffffffffffffffffffffffff1673ffffffffffffffffffffffffffffffffffffffff1673ffffffffffffffffffffffffffffffffffffffff1681526020019081526020016000206000808201600090556001820160006101000a81549060ff02191690556001820160016101000a81549060ff02191690556001820160026101000a81549073ffffffffffffffffffffffffffffffffffffffff021916905550508080600101915050612006565b50565b600160008b815260200190815260200160002060080160009054906101000a900473ffffffffffffffffffffffffffffffffffffffff168073ffffffffffffffffffffffffffffffffffffffff163373ffffffffffffffffffffffffffffffffffffffff161461243d576040517f08c379a000000000000000000000000000000000000000000000000000000000815260040161243490613f6c565b60405180910390fd5b89600160008d81526020019081526020016000206001019080519060200190612467929190613178565b5088600160008d815260200190815260200160002060020190805190602001906124929291906131f8565b5087600160008d815260200190815260200160002060040190805190602001906124bd929190613245565b5086600160008d815260200190815260200160002060050160006101000a81548160ff02191690831515021790555085600160008d815260200190815260200160002060050160016101000a81548160ff02191690831515021790555084600160008d815260200190815260200160002060050160026101000a81548160ff02191690831515021790555060018402600160008d81526020019081526020016000206006018190555060018302600160008d81526020019081526020016000206007018190555081600160008d8152602001908152602001600020600901600082015181600001556020820151816001015560408201518160020155606082015181600301559050505050505050505050505050565b6125db613292565b60016000600260003373ffffffffffffffffffffffffffffffffffffffff1673ffffffffffffffffffffffffffffffffffffffff168152602001908152602001600020600001548152602001908152602001600020604051806101a001604052908160008201548152602001600182018054600181600116156101000203166002900480601f0160208091040260200160405190810160405280929190818152602001828054600181600116156101000203166002900480156126df5780601f106126b4576101008083540402835291602001916126df565b820191906000526020600020905b8154815290600101906020018083116126c257829003601f168201915b505050505081526020016002820180548060200260200160405190810160405280929190818152602001828054801561273757602002820191906000526020600020905b815481526020019060010190808311612723575b50505050508152602001600382015481526020016004820180548060200260200160405190810160405280929190818152602001828054801561279957602002820191906000526020600020905b815481526020019060010190808311612785575b505050505081526020016005820160009054906101000a900460ff161515151581526020016005820160019054906101000a900460ff161515151581526020016005820160029054906101000a900460ff1615151515815260200160068201548152602001600782015481526020016008820160009054906101000a900473ffffffffffffffffffffffffffffffffffffffff1673ffffffffffffffffffffffffffffffffffffffff1673ffffffffffffffffffffffffffffffffffffffff1681526020016008820160149054906101000a900460ff161515151581526020016009820160405180608001604052908160008201548152602001600182015481526020016002820154815260200160038201548152505081525050905090565b6001600082815260200190815260200160002060080160009054906101000a900473ffffffffffffffffffffffffffffffffffffffff168073ffffffffffffffffffffffffffffffffffffffff163373ffffffffffffffffffffffffffffffffffffffff161461295e576040517f08c379a000000000000000000000000000000000000000000000000000000000815260040161295590613f6c565b60405180910390fd5b61296782612d2a565b61297057600080fd5b6001600083815260200190815260200160002060080160149054906101000a900460ff16156001600084815260200190815260200160002060080160146101000a81548160ff0219169083151502179055505050565b816129d081612d2a565b80612a74575080600260003373ffffffffffffffffffffffffffffffffffffffff1673ffffffffffffffffffffffffffffffffffffffff16815260200190815260200160002060000154148015612a735750600260003373ffffffffffffffffffffffffffffffffffffffff1673ffffffffffffffffffffffffffffffffffffffff16815260200190815260200160002060010160009054906101000a900460ff165b5b612ab3576040517f08c379a0000000000000000000000000000000000000000000000000000000008152600401612aaa90613fac565b60405180910390fd5b600060016000858152602001908152602001600020600901600301819055506005821115612ae45760059150612af3565b6001821015612af257600191505b5b60026001600085815260200190815260200160002060030154830181612b1557fe5b046001600085815260200190815260200160002060030181905550600260003373ffffffffffffffffffffffffffffffffffffffff1673ffffffffffffffffffffffffffffffffffffffff1681526020019081526020016000206000808201600090556001820160006101000a81549060ff02191690556001820160016101000a81549060ff02191690556001820160026101000a81549073ffffffffffffffffffffffffffffffffffffffff02191690555050505050565b60001515600260003373ffffffffffffffffffffffffffffffffffffffff1673ffffffffffffffffffffffffffffffffffffffff16815260200190815260200160002060010160019054906101000a900460ff16151514612c2e57600080fd5b600060016000600260003373ffffffffffffffffffffffffffffffffffffffff1673ffffffffffffffffffffffffffffffffffffffff16815260200190815260200160002060000154815260200190815260200160002060090160010181905550600260003373ffffffffffffffffffffffffffffffffffffffff1673ffffffffffffffffffffffffffffffffffffffff1681526020019081526020016000206000808201600090556001820160006101000a81549060ff02191690556001820160016101000a81549060ff02191690556001820160026101000a81549073ffffffffffffffffffffffffffffffffffffffff02191690555050565b6000600160008381526020019081526020016000206009016001015442118015612d6c5750600160008381526020019081526020016000206009016003015442115b8015612d9857506001600083815260200190815260200160002060080160149054906101000a900460ff165b9050919050565b606080600460003373ffffffffffffffffffffffffffffffffffffffff1673ffffffffffffffffffffffffffffffffffffffff1681526020019081526020016000205467ffffffffffffffff81118015612df857600080fd5b50604051908082528060200260200182016040528015612e3257816020015b612e1f613292565b815260200190600190039081612e175790505b5090506000805b60055481101561316f573373ffffffffffffffffffffffffffffffffffffffff166001600083815260200190815260200160002060080160009054906101000a900473ffffffffffffffffffffffffffffffffffffffff1673ffffffffffffffffffffffffffffffffffffffff1614156131625760016000828152602001908152602001600020604051806101a001604052908160008201548152602001600182018054600181600116156101000203166002900480601f016020809104026020016040519081016040528092919081815260200182805460018160011615610100020316600290048015612f6f5780601f10612f4457610100808354040283529160200191612f6f565b820191906000526020600020905b815481529060010190602001808311612f5257829003601f168201915b5050505050815260200160028201805480602002602001604051908101604052809291908181526020018280548015612fc757602002820191906000526020600020905b815481526020019060010190808311612fb3575b50505050508152602001600382015481526020016004820180548060200260200160405190810160405280929190818152602001828054801561302957602002820191906000526020600020905b815481526020019060010190808311613015575b505050505081526020016005820160009054906101000a900460ff161515151581526020016005820160019054906101000a900460ff161515151581526020016005820160029054906101000a900460ff1615151515815260200160068201548152602001600782015481526020016008820160009054906101000a900473ffffffffffffffffffffffffffffffffffffffff1673ffffffffffffffffffffffffffffffffffffffff1673ffffffffffffffffffffffffffffffffffffffff1681526020016008820160149054906101000a900460ff16151515158152602001600982016040518060800160405290816000820154815260200160018201548152602001600282015481526020016003820154815250508152505083838060010194508151811061315657fe5b60200260200101819052505b8080600101915050612e39565b50819250505090565b828054600181600116156101000203166002900490600052602060002090601f016020900481019282601f106131b957805160ff19168380011785556131e7565b828001600101855582156131e7579182015b828111156131e65782518255916020019190600101906131cb565b5b5090506131f49190613346565b5090565b828054828255906000526020600020908101928215613234579160200282015b82811115613233578251825591602001919060010190613218565b5b5090506132419190613363565b5090565b828054828255906000526020600020908101928215613281579160200282015b82811115613280578251825591602001919060010190613265565b5b50905061328e9190613346565b5090565b604051806101a0016040528060008152602001606081526020016060815260200160008152602001606081526020016000151581526020016000151581526020016000151581526020016000815260200160008152602001600073ffffffffffffffffffffffffffffffffffffffff16815260200160001515815260200161331861331e565b81525090565b6040518060800160405280600081526020016000815260200160008152602001600081525090565b5b8082111561335f576000816000905550600101613347565b5090565b5b8082111561337c576000816000905550600101613364565b5090565b60008135905061338f81614338565b92915050565b600082601f8301126133a657600080fd5b81356133b96133b48261412d565b614100565b915081818352602084019350602081019050838560208402820111156133de57600080fd5b60005b8381101561340e57816133f488826134b0565b8452602084019350602083019250506001810190506133e1565b5050505092915050565b600082601f83011261342957600080fd5b813561343c61343782614155565b614100565b9150818183526020840193506020810190508385602084028201111561346157600080fd5b60005b838110156134915781613477888261358d565b845260208401935060208301925050600181019050613464565b5050505092915050565b6000813590506134aa8161434f565b92915050565b6000813590506134bf81614366565b92915050565b600082601f8301126134d657600080fd5b81356134e96134e48261417d565b614100565b9150808252602083016020830185838301111561350557600080fd5b6135108382846142e5565b50505092915050565b60006080828403121561352b57600080fd5b6135356080614100565b905060006135458482850161358d565b60008301525060206135598482850161358d565b602083015250604061356d8482850161358d565b60408301525060606135818482850161358d565b60608301525092915050565b60008135905061359c8161437d565b92915050565b6000602082840312156135b457600080fd5b60006135c284828501613380565b91505092915050565b600080604083850312156135de57600080fd5b60006135ec85828601613380565b92505060206135fd8582860161358d565b9150509250929050565b6000806000806000806000806000806101a08b8d03121561362757600080fd5b60008b013567ffffffffffffffff81111561364157600080fd5b61364d8d828e016134c5565b9a505060208b013567ffffffffffffffff81111561366a57600080fd5b6136768d828e01613395565b99505060408b013567ffffffffffffffff81111561369357600080fd5b61369f8d828e01613418565b98505060606136b08d828e0161349b565b97505060806136c18d828e0161349b565b96505060a06136d28d828e0161349b565b95505060c06136e38d828e0161358d565b94505060e06136f48d828e0161358d565b9350506101006137068d828e0161349b565b9250506101206137188d828e01613519565b9150509295989b9194979a5092959850565b60006020828403121561373c57600080fd5b600061374a8482850161358d565b91505092915050565b6000806000806000806000806000806101a08b8d03121561377357600080fd5b60006137818d828e0161358d565b9a505060208b013567ffffffffffffffff81111561379e57600080fd5b6137aa8d828e016134c5565b99505060408b013567ffffffffffffffff8111156137c757600080fd5b6137d38d828e01613395565b98505060608b013567ffffffffffffffff8111156137f057600080fd5b6137fc8d828e01613418565b975050608061380d8d828e0161349b565b96505060a061381e8d828e0161349b565b95505060c061382f8d828e0161349b565b94505060e06138408d828e0161358d565b9350506101006138528d828e0161358d565b9250506101206138648d828e01613519565b9150509295989b9194979a5092959850565b6000806040838503121561388957600080fd5b60006138978582860161358d565b92505060206138a88582860161358d565b9150509250929050565b60006138be8383613a63565b60208301905092915050565b60006138d68383613c4e565b905092915050565b60006138ea8383613e9c565b60208301905092915050565b6138ff81614293565b82525050565b61390e81614293565b82525050565b600061391f826141d9565b613929818561422c565b9350613934836141a9565b8060005b8381101561396557815161394c88826138b2565b975061395783614205565b925050600181019050613938565b5085935050505092915050565b600061397d826141e4565b613987818561423d565b935083602082028501613999856141b9565b8060005b858110156139d557848403895281516139b685826138ca565b94506139c183614212565b925060208a0199505060018101905061399d565b50829750879550505050505092915050565b60006139f2826141ef565b6139fc818561424e565b9350613a07836141c9565b8060005b83811015613a38578151613a1f88826138de565b9750613a2a8361421f565b925050600181019050613a0b565b5085935050505092915050565b613a4e816142a5565b82525050565b613a5d816142a5565b82525050565b613a6c816142b1565b82525050565b6000613a7d826141fa565b613a87818561425f565b9350613a978185602086016142f4565b613aa081614327565b840191505092915050565b6000613ab6826141fa565b613ac08185614270565b9350613ad08185602086016142f4565b613ad981614327565b840191505092915050565b6000613af1601383614270565b91507f43616c6c6572206973206e6f74206f776e6572000000000000000000000000006000830152602082019050919050565b6000613b31600f83614270565b91507f42616c616e6365206973206c6f772e00000000000000000000000000000000006000830152602082019050919050565b6000613b71601283614270565b91507f43616c6c6572206973206e6f74207573657200000000000000000000000000006000830152602082019050919050565b608082016000820151613bba6000850182613e9c565b506020820151613bcd6020850182613e9c565b506040820151613be06040850182613e9c565b506060820151613bf36060850182613e9c565b50505050565b608082016000820151613c0f6000850182613e9c565b506020820151613c226020850182613e9c565b506040820151613c356040850182613e9c565b506060820151613c486060850182613e9c565b50505050565b600061020083016000830151613c676000860182613e9c565b5060208301518482036020860152613c7f8282613a72565b91505060408301518482036040860152613c998282613914565b9150506060830151613cae6060860182613e9c565b5060808301518482036080860152613cc682826139e7565b91505060a0830151613cdb60a0860182613a45565b5060c0830151613cee60c0860182613a45565b5060e0830151613d0160e0860182613a45565b50610100830151613d16610100860182613e9c565b50610120830151613d2b610120860182613e9c565b50610140830151613d406101408601826138f6565b50610160830151613d55610160860182613a45565b50610180830151613d6a610180860182613ba4565b508091505092915050565b600061020083016000830151613d8e6000860182613e9c565b5060208301518482036020860152613da68282613a72565b91505060408301518482036040860152613dc08282613914565b9150506060830151613dd56060860182613e9c565b5060808301518482036080860152613ded82826139e7565b91505060a0830151613e0260a0860182613a45565b5060c0830151613e1560c0860182613a45565b5060e0830151613e2860e0860182613a45565b50610100830151613e3d610100860182613e9c565b50610120830151613e52610120860182613e9c565b50610140830151613e676101408601826138f6565b50610160830151613e7c610160860182613a45565b50610180830151613e91610180860182613ba4565b508091505092915050565b613ea5816142db565b82525050565b613eb4816142db565b82525050565b600060a082019050613ecf6000830188613905565b613edc6020830187613905565b613ee96040830186613eab565b613ef66060830185613eab565b613f036080830184613a54565b9695505050505050565b60006020820190508181036000830152613f278184613972565b905092915050565b6000602082019050613f446000830184613a54565b92915050565b60006020820190508181036000830152613f648184613aab565b905092915050565b60006020820190508181036000830152613f8581613ae4565b9050919050565b60006020820190508181036000830152613fa581613b24565b9050919050565b60006020820190508181036000830152613fc581613b64565b9050919050565b60006020820190508181036000830152613fe68184613d75565b905092915050565b60006020820190506140036000830184613eab565b92915050565b600060808201905061401e6000830187613eab565b61402b6020830186613a54565b6140386040830185613a54565b6140456060830184613905565b95945050505050565b60006101c082019050614064600083018e613eab565b8181036020830152614076818d613aab565b9050614085604083018c613eab565b614092606083018b613a54565b61409f608083018a613a54565b6140ac60a0830189613a54565b6140b960c0830188613eab565b6140c660e0830187613eab565b6140d4610100830186613905565b6140e2610120830185613a54565b6140f0610140830184613bf9565b9c9b505050505050505050505050565b6000604051905081810181811067ffffffffffffffff8211171561412357600080fd5b8060405250919050565b600067ffffffffffffffff82111561414457600080fd5b602082029050602081019050919050565b600067ffffffffffffffff82111561416c57600080fd5b602082029050602081019050919050565b600067ffffffffffffffff82111561419457600080fd5b601f19601f8301169050602081019050919050565b6000819050602082019050919050565b6000819050602082019050919050565b6000819050602082019050919050565b600081519050919050565b600081519050919050565b600081519050919050565b600081519050919050565b6000602082019050919050565b6000602082019050919050565b6000602082019050919050565b600082825260208201905092915050565b600082825260208201905092915050565b600082825260208201905092915050565b600082825260208201905092915050565b600082825260208201905092915050565b600061428c826142bb565b9050919050565b600061429e826142bb565b9050919050565b60008115159050919050565b6000819050919050565b600073ffffffffffffffffffffffffffffffffffffffff82169050919050565b6000819050919050565b82818337600083830152505050565b60005b838110156143125780820151818401526020810190506142f7565b83811115614321576000848401525b50505050565b6000601f19601f8301169050919050565b61434181614281565b811461434c57600080fd5b50565b614358816142a5565b811461436357600080fd5b50565b61436f816142b1565b811461437a57600080fd5b50565b614386816142db565b811461439157600080fd5b5056fea26469706673582212208981312575d058dd391b13f5d5e1ae6c19900afd89a25e31f59289417f906bc564736f6c63430007000033",
  "immutableReferences": {},
  "source": "// SPDX-License-Identifier: MIT\r\npragma solidity >=0.7.0 <0.8.0;\r\npragma experimental ABIEncoderV2;\r\n\r\ncontract ParkingBooks {\r\n\r\n    address payable private admin;\r\n     // modifier to check if caller is owner\r\n    modifier isAdmin() {\r\n        require(msg.sender == admin, \"Caller is not admin\");\r\n        _;\r\n    }\r\n    // event for EVM logging\r\n    event AdminSet(address indexed oldAdmin, address indexed newAdmin);\r\n    /**\r\n     * @dev Set contract deployer as owner\r\n     */\r\n    constructor() {\r\n        admin = msg.sender; // 'msg.sender' is sender of current call, contract deployer for a constructor\r\n        emit AdminSet(address(0), admin);\r\n    }\r\n\r\n    struct ParkingTime{\r\n      uint waitReserve;\r\n      uint endReserve;\r\n      uint waitLease;\r\n      uint endLease;\r\n  }\r\n\r\n   struct Parking {\r\n       uint id;\r\n      string title;\r\n      int[] location;\r\n      uint score;\r\n      uint[] working_hours;\r\n      bool electric_support;\r\n      bool roof;\r\n      bool garage;\r\n      uint price; //number is saved times 100\r\n      uint deposit; //number is saved times 100\r\n      address payable owner;\r\n      bool enabled;\r\n      ParkingTime time;\r\n  }\r\n\r\n  struct User{\r\n      uint parking_id;\r\n      bool hasAccess;\r\n      bool leased;\r\n      address payable user;\r\n  }\r\n\r\n    struct Deposit{\r\n        address payable owner;\r\n        address payable user;\r\n        uint price;\r\n        uint deposit;\r\n        bool returnToUser;\r\n    }\r\n\r\n  mapping(uint => Parking) public parkings;\r\n  mapping(address => User) public users;\r\n  mapping(address => mapping(uint => Deposit)) public owners;\r\n  mapping(address => uint) public ownsCount;\r\n\r\n  uint count = 0;\r\n  uint depositCount = 0;\r\n\r\n    modifier isOwner(address owner) {\r\n        require(msg.sender == owner, \"Caller is not owner\");\r\n        _;\r\n    }\r\n\r\n    modifier isUser(uint id) {\r\n        require(checkIfNotInUse(id) || (users[msg.sender].parking_id == id && users[msg.sender].hasAccess), \"Caller is not user\");\r\n        _;\r\n    }\r\n\r\n    function index() public view returns (Parking[] memory){\r\n        Parking[] memory ret = new Parking[](count);\r\n        for (uint i = 0; i < count; i++) {\r\n            ret[i] = parkings[i];\r\n        }\r\n        return ret;\r\n    }\r\n\r\n    function indexByOwner() public view returns (Parking[] memory){\r\n        Parking[] memory ret = new Parking[](ownsCount[msg.sender]);\r\n        uint temp_count = 0;\r\n        for (uint i = 0; i < count; i++) {\r\n            if(parkings[i].owner == msg.sender){\r\n                ret[temp_count++] = parkings[i];\r\n            }\r\n        }\r\n        return ret;\r\n    }\r\n\r\n    function show(uint id) public view returns (Parking memory){\r\n        return parkings[id];\r\n    }\r\n\r\n    function show() public view returns (Parking memory){\r\n        return parkings[users[msg.sender].parking_id];\r\n    }\r\n\r\n    function testStore() public {\r\n        int[] memory temp = new int[](2);\r\n        temp[0] = 20;\r\n        temp[1] = 30;\r\n        uint[] memory working = new uint[](2);\r\n        working[0] = 8;\r\n        working[1] = 18;\r\n        ParkingTime memory _time = ParkingTime({\r\n            waitReserve: 20 seconds,\r\n            endReserve: 0,\r\n            waitLease: 60 seconds,\r\n            endLease: 0\r\n        });\r\n        parkings[count] = Parking({\r\n            id: count,\r\n            title: 'Test',\r\n            location: temp,\r\n            score: 5,\r\n            working_hours: working,\r\n            electric_support: false,\r\n            roof: false,\r\n            garage: false,\r\n            price: 1 ether,\r\n            deposit: 2 ether,\r\n            owner: msg.sender,\r\n            enabled: true,\r\n            time: _time\r\n        });\r\n        count++;\r\n        ownsCount[msg.sender]++;\r\n    }\r\n\r\n    function store(string memory _title, int[] memory _location, uint[] memory _working_hours, bool _electric_support, bool _roof, bool _garage, uint _price, uint _deposit, bool _enabled, ParkingTime memory _time) public {\r\n        parkings[count] = Parking({\r\n            id: count,\r\n            title: _title,\r\n            location: _location,\r\n            score: 5,\r\n            working_hours: _working_hours,\r\n            electric_support: _electric_support,\r\n            roof: _roof,\r\n            garage: _garage,\r\n            price: _price * 1 wei,\r\n            deposit: _deposit * 1 wei,\r\n            owner: msg.sender,\r\n            enabled: _enabled,\r\n            time: _time\r\n        });\r\n        count++;\r\n        ownsCount[msg.sender]++;\r\n    }\r\n\r\n    function update(uint id, string memory _title, int[] memory _location, uint[] memory _working_hours, bool _electric_support, bool _roof, bool _garage, uint _price, uint _deposit, ParkingTime memory _time) public isOwner(parkings[id].owner) {\r\n        parkings[id].title = _title;\r\n        parkings[id].location = _location;\r\n        parkings[id].working_hours = _working_hours;\r\n        parkings[id].electric_support = _electric_support;\r\n        parkings[id].roof = _roof;\r\n        parkings[id].garage = _garage;\r\n        parkings[id].price = _price * 1 wei;\r\n        parkings[id].deposit = _deposit * 1 wei;\r\n        parkings[id].time = _time;\r\n    }\r\n\r\n    function reserve(uint id) public {\r\n        require(checkIfNotInUse(id));\r\n        parkings[id].time.endReserve = block.timestamp+parkings[id].time.waitReserve;\r\n        users[msg.sender] = User({parking_id: id, hasAccess: true, leased: false, user: msg.sender});\r\n        parkings[id].time.endLease = 0;\r\n    }\r\n\r\n    function reserve_end(uint id) public isUser(id){\r\n        require(users[msg.sender].leased == false);\r\n        parkings[id].time.endReserve = 0;\r\n        delete users[msg.sender];\r\n    }\r\n\r\n    function reserve_end() public {\r\n        require(users[msg.sender].leased == false);\r\n        parkings[users[msg.sender].parking_id].time.endReserve = 0;\r\n        delete users[msg.sender];\r\n    }\r\n\r\n    function lease(uint id) public payable hasBalance(id) {\r\n        require(checkIfNotInUse(id) || users[msg.sender].parking_id == id);\r\n\r\n        owners[parkings[id].owner][depositCount] = Deposit({\r\n           owner: parkings[id].owner,\r\n           user: msg.sender,\r\n           returnToUser: true,\r\n           price: parkings[id].price,\r\n           deposit: parkings[id].deposit\r\n        });\r\n        depositCount++;\r\n        parkings[id].time.endLease = block.timestamp+parkings[id].time.waitLease;\r\n        users[msg.sender] = User({parking_id: id, hasAccess: true, leased: true, user: msg.sender});\r\n        parkings[id].time.endReserve = 0;\r\n    }\r\n\r\n    function leaseUpdate(uint id) public payable hasBalance(id) {\r\n        require(checkIfNotInUse(id) || users[msg.sender].parking_id == id);\r\n\r\n        owners[parkings[id].owner][depositCount].price += parkings[id].price;\r\n        owners[parkings[id].owner][depositCount].deposit += parkings[id].deposit;\r\n        parkings[id].time.endLease = block.timestamp+parkings[id].time.waitLease;\r\n    }\r\n\r\n    function lease_end(uint id, uint _score) public isUser(id){\r\n        parkings[id].time.endLease = 0;\r\n        if(_score > 5){\r\n            _score = 5;\r\n        }else if(_score < 1){\r\n          _score = 1;\r\n        }\r\n        parkings[id].score = (_score + parkings[id].score)/2;\r\n        delete users[msg.sender];\r\n    }\r\n\r\n    function resolveFunds() public {\r\n        for (uint i = 0; i < depositCount; i++) {\r\n            msg.sender.transfer(owners[msg.sender][i].price);\r\n            owners[msg.sender][i].user.transfer(owners[msg.sender][i].deposit);\r\n            delete owners[msg.sender][i];\r\n            delete users[owners[msg.sender][i].user];\r\n        }\r\n    }\r\n\r\n    function trunOnOff(uint id) public isOwner(parkings[id].owner) {\r\n        require(checkIfNotInUse(id));\r\n        parkings[id].enabled = !parkings[id].enabled;\r\n    }\r\n\r\n    function checkIfNotInUse(uint id) view public returns (bool) {\r\n        return (block.timestamp > parkings[id].time.endReserve && block.timestamp > parkings[id].time.endLease && parkings[id].enabled);\r\n    }\r\n\r\n    function checkStatus() view public returns (string memory){\r\n        if(users[msg.sender].hasAccess){\r\n            uint id = users[msg.sender].parking_id;\r\n            if(parkings[id].time.endReserve > 0 && block.timestamp < parkings[id].time.endReserve){\r\n                return \"inReserve\";\r\n            }else\r\n            if(parkings[users[msg.sender].parking_id].time.endLease > 0 && block.timestamp < parkings[id].time.endLease){\r\n                return \"inLease\";\r\n            }\r\n        }\r\n        return \"inMap\";\r\n\r\n    }\r\n\r\n    modifier hasBalance(uint id){\r\n        require(msg.value >= parkings[id].price+parkings[id].deposit, \"Balance is low.\");\r\n        _;\r\n    }\r\n\r\n\r\n}\r\n",
  "sourcePath": "E:/Vue/smart-parking/contracts/ParkingBooks.sol",
  "compiler": {
    "name": "solc",
    "version": "0.7.0+commit.9e61f92b.Emscripten.clang"
  },
  "schemaVersion": "3.2.3",
  "updatedAt": "2020-09-05T18:20:14.105Z",
  "networkType": "ethereum",
  "devdoc": {
    "kind": "dev",
    "methods": {
      "constructor": {
        "details": "Set contract deployer as owner"
      }
    },
    "version": 1
  },
  "userdoc": {
    "kind": "user",
    "methods": {},
    "version": 1
  }
}