{
  "contractName": "ParkingBooks",
  "abi": [
    {
      "inputs": [],
      "stateMutability": "nonpayable",
      "type": "constructor"
    },
    {
      "anonymous": false,
      "inputs": [
        {
          "indexed": true,
          "internalType": "address",
          "name": "oldAdmin",
          "type": "address"
        },
        {
          "indexed": true,
          "internalType": "address",
          "name": "newAdmin",
          "type": "address"
        }
      ],
      "name": "AdminSet",
      "type": "event"
    },
    {
      "inputs": [
        {
          "internalType": "address",
          "name": "",
          "type": "address"
        },
        {
          "internalType": "uint256",
          "name": "",
          "type": "uint256"
        }
      ],
      "name": "owners",
      "outputs": [
        {
          "internalType": "address payable",
          "name": "owner",
          "type": "address"
        },
        {
          "internalType": "address payable",
          "name": "user",
          "type": "address"
        },
        {
          "internalType": "uint256",
          "name": "price",
          "type": "uint256"
        },
        {
          "internalType": "uint256",
          "name": "deposit",
          "type": "uint256"
        },
        {
          "internalType": "bool",
          "name": "returnToUser",
          "type": "bool"
        }
      ],
      "stateMutability": "view",
      "type": "function",
      "constant": true
    },
    {
      "inputs": [
        {
          "internalType": "address",
          "name": "",
          "type": "address"
        }
      ],
      "name": "ownsCount",
      "outputs": [
        {
          "internalType": "uint256",
          "name": "",
          "type": "uint256"
        }
      ],
      "stateMutability": "view",
      "type": "function",
      "constant": true
    },
    {
      "inputs": [
        {
          "internalType": "uint256",
          "name": "",
          "type": "uint256"
        }
      ],
      "name": "parkings",
      "outputs": [
        {
          "internalType": "uint256",
          "name": "id",
          "type": "uint256"
        },
        {
          "internalType": "string",
          "name": "title",
          "type": "string"
        },
        {
          "internalType": "uint256",
          "name": "score",
          "type": "uint256"
        },
        {
          "internalType": "bool",
          "name": "electric_support",
          "type": "bool"
        },
        {
          "internalType": "bool",
          "name": "roof",
          "type": "bool"
        },
        {
          "internalType": "bool",
          "name": "garage",
          "type": "bool"
        },
        {
          "internalType": "uint256",
          "name": "price",
          "type": "uint256"
        },
        {
          "internalType": "uint256",
          "name": "deposit",
          "type": "uint256"
        },
        {
          "internalType": "address payable",
          "name": "owner",
          "type": "address"
        },
        {
          "internalType": "bool",
          "name": "enabled",
          "type": "bool"
        },
        {
          "components": [
            {
              "internalType": "uint256",
              "name": "waitReserve",
              "type": "uint256"
            },
            {
              "internalType": "uint256",
              "name": "endReserve",
              "type": "uint256"
            },
            {
              "internalType": "uint256",
              "name": "waitLease",
              "type": "uint256"
            },
            {
              "internalType": "uint256",
              "name": "endLease",
              "type": "uint256"
            }
          ],
          "internalType": "struct ParkingBooks.ParkingTime",
          "name": "time",
          "type": "tuple"
        },
        {
          "internalType": "string",
          "name": "url",
          "type": "string"
        }
      ],
      "stateMutability": "view",
      "type": "function",
      "constant": true
    },
    {
      "inputs": [
        {
          "internalType": "address",
          "name": "",
          "type": "address"
        }
      ],
      "name": "users",
      "outputs": [
        {
          "internalType": "uint256",
          "name": "parking_id",
          "type": "uint256"
        },
        {
          "internalType": "bool",
          "name": "hasAccess",
          "type": "bool"
        },
        {
          "internalType": "bool",
          "name": "leased",
          "type": "bool"
        },
        {
          "internalType": "address payable",
          "name": "user",
          "type": "address"
        }
      ],
      "stateMutability": "view",
      "type": "function",
      "constant": true
    },
    {
      "inputs": [],
      "name": "index",
      "outputs": [
        {
          "components": [
            {
              "internalType": "uint256",
              "name": "id",
              "type": "uint256"
            },
            {
              "internalType": "string",
              "name": "title",
              "type": "string"
            },
            {
              "internalType": "int256[]",
              "name": "location",
              "type": "int256[]"
            },
            {
              "internalType": "uint256",
              "name": "score",
              "type": "uint256"
            },
            {
              "internalType": "uint256[]",
              "name": "working_hours",
              "type": "uint256[]"
            },
            {
              "internalType": "bool",
              "name": "electric_support",
              "type": "bool"
            },
            {
              "internalType": "bool",
              "name": "roof",
              "type": "bool"
            },
            {
              "internalType": "bool",
              "name": "garage",
              "type": "bool"
            },
            {
              "internalType": "uint256",
              "name": "price",
              "type": "uint256"
            },
            {
              "internalType": "uint256",
              "name": "deposit",
              "type": "uint256"
            },
            {
              "internalType": "address payable",
              "name": "owner",
              "type": "address"
            },
            {
              "internalType": "bool",
              "name": "enabled",
              "type": "bool"
            },
            {
              "components": [
                {
                  "internalType": "uint256",
                  "name": "waitReserve",
                  "type": "uint256"
                },
                {
                  "internalType": "uint256",
                  "name": "endReserve",
                  "type": "uint256"
                },
                {
                  "internalType": "uint256",
                  "name": "waitLease",
                  "type": "uint256"
                },
                {
                  "internalType": "uint256",
                  "name": "endLease",
                  "type": "uint256"
                }
              ],
              "internalType": "struct ParkingBooks.ParkingTime",
              "name": "time",
              "type": "tuple"
            },
            {
              "internalType": "string",
              "name": "url",
              "type": "string"
            }
          ],
          "internalType": "struct ParkingBooks.Parking[]",
          "name": "",
          "type": "tuple[]"
        }
      ],
      "stateMutability": "view",
      "type": "function",
      "constant": true
    },
    {
      "inputs": [],
      "name": "indexByOwner",
      "outputs": [
        {
          "components": [
            {
              "internalType": "uint256",
              "name": "id",
              "type": "uint256"
            },
            {
              "internalType": "string",
              "name": "title",
              "type": "string"
            },
            {
              "internalType": "int256[]",
              "name": "location",
              "type": "int256[]"
            },
            {
              "internalType": "uint256",
              "name": "score",
              "type": "uint256"
            },
            {
              "internalType": "uint256[]",
              "name": "working_hours",
              "type": "uint256[]"
            },
            {
              "internalType": "bool",
              "name": "electric_support",
              "type": "bool"
            },
            {
              "internalType": "bool",
              "name": "roof",
              "type": "bool"
            },
            {
              "internalType": "bool",
              "name": "garage",
              "type": "bool"
            },
            {
              "internalType": "uint256",
              "name": "price",
              "type": "uint256"
            },
            {
              "internalType": "uint256",
              "name": "deposit",
              "type": "uint256"
            },
            {
              "internalType": "address payable",
              "name": "owner",
              "type": "address"
            },
            {
              "internalType": "bool",
              "name": "enabled",
              "type": "bool"
            },
            {
              "components": [
                {
                  "internalType": "uint256",
                  "name": "waitReserve",
                  "type": "uint256"
                },
                {
                  "internalType": "uint256",
                  "name": "endReserve",
                  "type": "uint256"
                },
                {
                  "internalType": "uint256",
                  "name": "waitLease",
                  "type": "uint256"
                },
                {
                  "internalType": "uint256",
                  "name": "endLease",
                  "type": "uint256"
                }
              ],
              "internalType": "struct ParkingBooks.ParkingTime",
              "name": "time",
              "type": "tuple"
            },
            {
              "internalType": "string",
              "name": "url",
              "type": "string"
            }
          ],
          "internalType": "struct ParkingBooks.Parking[]",
          "name": "",
          "type": "tuple[]"
        }
      ],
      "stateMutability": "view",
      "type": "function",
      "constant": true
    },
    {
      "inputs": [
        {
          "internalType": "uint256",
          "name": "id",
          "type": "uint256"
        }
      ],
      "name": "show",
      "outputs": [
        {
          "components": [
            {
              "internalType": "uint256",
              "name": "id",
              "type": "uint256"
            },
            {
              "internalType": "string",
              "name": "title",
              "type": "string"
            },
            {
              "internalType": "int256[]",
              "name": "location",
              "type": "int256[]"
            },
            {
              "internalType": "uint256",
              "name": "score",
              "type": "uint256"
            },
            {
              "internalType": "uint256[]",
              "name": "working_hours",
              "type": "uint256[]"
            },
            {
              "internalType": "bool",
              "name": "electric_support",
              "type": "bool"
            },
            {
              "internalType": "bool",
              "name": "roof",
              "type": "bool"
            },
            {
              "internalType": "bool",
              "name": "garage",
              "type": "bool"
            },
            {
              "internalType": "uint256",
              "name": "price",
              "type": "uint256"
            },
            {
              "internalType": "uint256",
              "name": "deposit",
              "type": "uint256"
            },
            {
              "internalType": "address payable",
              "name": "owner",
              "type": "address"
            },
            {
              "internalType": "bool",
              "name": "enabled",
              "type": "bool"
            },
            {
              "components": [
                {
                  "internalType": "uint256",
                  "name": "waitReserve",
                  "type": "uint256"
                },
                {
                  "internalType": "uint256",
                  "name": "endReserve",
                  "type": "uint256"
                },
                {
                  "internalType": "uint256",
                  "name": "waitLease",
                  "type": "uint256"
                },
                {
                  "internalType": "uint256",
                  "name": "endLease",
                  "type": "uint256"
                }
              ],
              "internalType": "struct ParkingBooks.ParkingTime",
              "name": "time",
              "type": "tuple"
            },
            {
              "internalType": "string",
              "name": "url",
              "type": "string"
            }
          ],
          "internalType": "struct ParkingBooks.Parking",
          "name": "",
          "type": "tuple"
        }
      ],
      "stateMutability": "view",
      "type": "function",
      "constant": true
    },
    {
      "inputs": [],
      "name": "show",
      "outputs": [
        {
          "components": [
            {
              "internalType": "uint256",
              "name": "id",
              "type": "uint256"
            },
            {
              "internalType": "string",
              "name": "title",
              "type": "string"
            },
            {
              "internalType": "int256[]",
              "name": "location",
              "type": "int256[]"
            },
            {
              "internalType": "uint256",
              "name": "score",
              "type": "uint256"
            },
            {
              "internalType": "uint256[]",
              "name": "working_hours",
              "type": "uint256[]"
            },
            {
              "internalType": "bool",
              "name": "electric_support",
              "type": "bool"
            },
            {
              "internalType": "bool",
              "name": "roof",
              "type": "bool"
            },
            {
              "internalType": "bool",
              "name": "garage",
              "type": "bool"
            },
            {
              "internalType": "uint256",
              "name": "price",
              "type": "uint256"
            },
            {
              "internalType": "uint256",
              "name": "deposit",
              "type": "uint256"
            },
            {
              "internalType": "address payable",
              "name": "owner",
              "type": "address"
            },
            {
              "internalType": "bool",
              "name": "enabled",
              "type": "bool"
            },
            {
              "components": [
                {
                  "internalType": "uint256",
                  "name": "waitReserve",
                  "type": "uint256"
                },
                {
                  "internalType": "uint256",
                  "name": "endReserve",
                  "type": "uint256"
                },
                {
                  "internalType": "uint256",
                  "name": "waitLease",
                  "type": "uint256"
                },
                {
                  "internalType": "uint256",
                  "name": "endLease",
                  "type": "uint256"
                }
              ],
              "internalType": "struct ParkingBooks.ParkingTime",
              "name": "time",
              "type": "tuple"
            },
            {
              "internalType": "string",
              "name": "url",
              "type": "string"
            }
          ],
          "internalType": "struct ParkingBooks.Parking",
          "name": "",
          "type": "tuple"
        }
      ],
      "stateMutability": "view",
      "type": "function",
      "constant": true
    },
    {
      "inputs": [],
      "name": "testStore",
      "outputs": [],
      "stateMutability": "nonpayable",
      "type": "function"
    },
    {
      "inputs": [
        {
          "internalType": "string",
          "name": "_title",
          "type": "string"
        },
        {
          "internalType": "int256[]",
          "name": "_location",
          "type": "int256[]"
        },
        {
          "internalType": "uint256[]",
          "name": "_working_hours",
          "type": "uint256[]"
        },
        {
          "internalType": "bool",
          "name": "_electric_support",
          "type": "bool"
        },
        {
          "internalType": "bool",
          "name": "_roof",
          "type": "bool"
        },
        {
          "internalType": "bool",
          "name": "_garage",
          "type": "bool"
        },
        {
          "internalType": "uint256",
          "name": "_price",
          "type": "uint256"
        },
        {
          "internalType": "uint256",
          "name": "_deposit",
          "type": "uint256"
        },
        {
          "internalType": "bool",
          "name": "_enabled",
          "type": "bool"
        },
        {
          "components": [
            {
              "internalType": "uint256",
              "name": "waitReserve",
              "type": "uint256"
            },
            {
              "internalType": "uint256",
              "name": "endReserve",
              "type": "uint256"
            },
            {
              "internalType": "uint256",
              "name": "waitLease",
              "type": "uint256"
            },
            {
              "internalType": "uint256",
              "name": "endLease",
              "type": "uint256"
            }
          ],
          "internalType": "struct ParkingBooks.ParkingTime",
          "name": "_time",
          "type": "tuple"
        },
        {
          "internalType": "string",
          "name": "_url",
          "type": "string"
        }
      ],
      "name": "store",
      "outputs": [],
      "stateMutability": "nonpayable",
      "type": "function"
    },
    {
      "inputs": [
        {
          "internalType": "uint256",
          "name": "id",
          "type": "uint256"
        },
        {
          "internalType": "string",
          "name": "_title",
          "type": "string"
        },
        {
          "internalType": "int256[]",
          "name": "_location",
          "type": "int256[]"
        },
        {
          "internalType": "uint256[]",
          "name": "_working_hours",
          "type": "uint256[]"
        },
        {
          "internalType": "bool",
          "name": "_electric_support",
          "type": "bool"
        },
        {
          "internalType": "bool",
          "name": "_roof",
          "type": "bool"
        },
        {
          "internalType": "bool",
          "name": "_garage",
          "type": "bool"
        },
        {
          "internalType": "uint256",
          "name": "_price",
          "type": "uint256"
        },
        {
          "internalType": "uint256",
          "name": "_deposit",
          "type": "uint256"
        },
        {
          "components": [
            {
              "internalType": "uint256",
              "name": "waitReserve",
              "type": "uint256"
            },
            {
              "internalType": "uint256",
              "name": "endReserve",
              "type": "uint256"
            },
            {
              "internalType": "uint256",
              "name": "waitLease",
              "type": "uint256"
            },
            {
              "internalType": "uint256",
              "name": "endLease",
              "type": "uint256"
            }
          ],
          "internalType": "struct ParkingBooks.ParkingTime",
          "name": "_time",
          "type": "tuple"
        },
        {
          "internalType": "string",
          "name": "_url",
          "type": "string"
        }
      ],
      "name": "update",
      "outputs": [],
      "stateMutability": "nonpayable",
      "type": "function"
    },
    {
      "inputs": [
        {
          "internalType": "uint256",
          "name": "id",
          "type": "uint256"
        }
      ],
      "name": "reserve",
      "outputs": [],
      "stateMutability": "nonpayable",
      "type": "function"
    },
    {
      "inputs": [
        {
          "internalType": "uint256",
          "name": "id",
          "type": "uint256"
        }
      ],
      "name": "reserve_end",
      "outputs": [],
      "stateMutability": "nonpayable",
      "type": "function"
    },
    {
      "inputs": [],
      "name": "reserve_end",
      "outputs": [],
      "stateMutability": "nonpayable",
      "type": "function"
    },
    {
      "inputs": [
        {
          "internalType": "uint256",
          "name": "id",
          "type": "uint256"
        }
      ],
      "name": "lease",
      "outputs": [],
      "stateMutability": "payable",
      "type": "function",
      "payable": true
    },
    {
      "inputs": [
        {
          "internalType": "uint256",
          "name": "id",
          "type": "uint256"
        }
      ],
      "name": "leaseUpdate",
      "outputs": [],
      "stateMutability": "payable",
      "type": "function",
      "payable": true
    },
    {
      "inputs": [
        {
          "internalType": "uint256",
          "name": "id",
          "type": "uint256"
        },
        {
          "internalType": "uint256",
          "name": "_score",
          "type": "uint256"
        }
      ],
      "name": "lease_end",
      "outputs": [],
      "stateMutability": "nonpayable",
      "type": "function"
    },
    {
      "inputs": [],
      "name": "resolveFunds",
      "outputs": [],
      "stateMutability": "nonpayable",
      "type": "function"
    },
    {
      "inputs": [
        {
          "internalType": "uint256",
          "name": "id",
          "type": "uint256"
        }
      ],
      "name": "trunOnOff",
      "outputs": [],
      "stateMutability": "nonpayable",
      "type": "function"
    },
    {
      "inputs": [
        {
          "internalType": "uint256",
          "name": "id",
          "type": "uint256"
        }
      ],
      "name": "checkIfNotInUse",
      "outputs": [
        {
          "internalType": "bool",
          "name": "",
          "type": "bool"
        }
      ],
      "stateMutability": "view",
      "type": "function",
      "constant": true
    },
    {
      "inputs": [],
      "name": "checkStatus",
      "outputs": [
        {
          "internalType": "string",
          "name": "",
          "type": "string"
        }
      ],
      "stateMutability": "view",
      "type": "function",
      "constant": true
    }
  ],
  "bytecode": "0x60806040526000600555600060065534801561001a57600080fd5b50336000806101000a81548173ffffffffffffffffffffffffffffffffffffffff021916908373ffffffffffffffffffffffffffffffffffffffff16021790555060008054906101000a900473ffffffffffffffffffffffffffffffffffffffff1673ffffffffffffffffffffffffffffffffffffffff16600073ffffffffffffffffffffffffffffffffffffffff167fbf265e8326285a2747e33e54d5945f7111f2b5edb826eb8c08d4677779b3ff9760405160405180910390a36148b3806100e56000396000f3fe60806040526004361061012a5760003560e01c80639b3e2787116100ab578063cc80f6f31161006f578063cc80f6f3146103d2578063ce307a46146103fd578063d4c0923014610426578063e704fb4e1461044f578063e7e0ecae14610466578063fb473fa7146104a35761012a565b80639b3e2787146102e6578063a87430ba14610327578063b66fe3a014610367578063bcc5f2071461037e578063c1864fd0146103bb5761012a565b80636c1ebdd9116100f25780636c1ebdd9146102125780636ccd41d21461023b57806370742c4414610257578063819b25ba146102805780638b514ed7146102a95761012a565b8063097cbfe51461012f5780632986c0e5146101775780632e352497146101a25780633b7104f2146101be57806341b6a659146101e9575b600080fd5b34801561013b57600080fd5b5061015660048036038101906101519190613b12565b6104ce565b60405161016e9c9b9a9998979695949392919061449b565b60405180910390f35b34801561018357600080fd5b5061018c6106e4565b604051610199919061435a565b60405180910390f35b6101bc60048036038101906101b79190613b12565b610aaf565b005b3480156101ca57600080fd5b506101d3610f02565b6040516101e09190614397565b60405180910390f35b3480156101f557600080fd5b50610210600480360381019061020b9190613b3b565b611128565b005b34801561021e57600080fd5b50610239600480360381019061023491906139c2565b61138f565b005b61025560048036038101906102509190613b12565b611636565b005b34801561026357600080fd5b5061027e60048036038101906102799190613b12565b6118a1565b005b34801561028c57600080fd5b506102a760048036038101906102a29190613b12565b611aaa565b005b3480156102b557600080fd5b506102d060048036038101906102cb9190613b12565b611c27565b6040516102dd9190614419565b60405180910390f35b3480156102f257600080fd5b5061030d60048036038101906103089190613986565b611f6f565b60405161031e959493929190614307565b60405180910390f35b34801561033357600080fd5b5061034e6004803603810190610349919061395d565b611fff565b60405161035e9493929190614456565b60405180910390f35b34801561037357600080fd5b5061037c612069565b005b34801561038a57600080fd5b506103a560048036038101906103a0919061395d565b612496565b6040516103b2919061443b565b60405180910390f35b3480156103c757600080fd5b506103d06124ae565b005b3480156103de57600080fd5b506103e7612843565b6040516103f49190614419565b60405180910390f35b34801561040957600080fd5b50610424600480360381019061041f9190613b12565b612bcb565b005b34801561043257600080fd5b5061044d60048036038101906104489190613c8b565b612cd8565b005b34801561045b57600080fd5b50610464612ee0565b005b34801561047257600080fd5b5061048d60048036038101906104889190613b12565b61303c565b60405161049a919061437c565b60405180910390f35b3480156104af57600080fd5b506104b86130b1565b6040516104c5919061435a565b60405180910390f35b6001602052806000526040600020600091509050806000015490806001018054600181600116156101000203166002900480601f0160208091040260200160405190810160405280929190818152602001828054600181600116156101000203166002900480156105805780601f1061055557610100808354040283529160200191610580565b820191906000526020600020905b81548152906001019060200180831161056357829003601f168201915b5050505050908060030154908060050160009054906101000a900460ff16908060050160019054906101000a900460ff16908060050160029054906101000a900460ff16908060060154908060070154908060080160009054906101000a900473ffffffffffffffffffffffffffffffffffffffff16908060080160149054906101000a900460ff1690806009016040518060800160405290816000820154815260200160018201548152602001600282015481526020016003820154815250509080600d018054600181600116156101000203166002900480601f0160208091040260200160405190810160405280929190818152602001828054600181600116156101000203166002900480156106da5780601f106106af576101008083540402835291602001916106da565b820191906000526020600020905b8154815290600101906020018083116106bd57829003601f168201915b505050505090508c565b60608060055467ffffffffffffffff8111801561070057600080fd5b5060405190808252806020026020018201604052801561073a57816020015b61072761352c565b81526020019060019003908161071f5790505b50905060005b600554811015610aa75760016000828152602001908152602001600020604051806101c001604052908160008201548152602001600182018054600181600116156101000203166002900480601f01602080910402602001604051908101604052809291908181526020018280546001816001161561010002031660029004801561080c5780601f106107e15761010080835404028352916020019161080c565b820191906000526020600020905b8154815290600101906020018083116107ef57829003601f168201915b505050505081526020016002820180548060200260200160405190810160405280929190818152602001828054801561086457602002820191906000526020600020905b815481526020019060010190808311610850575b5050505050815260200160038201548152602001600482018054806020026020016040519081016040528092919081815260200182805480156108c657602002820191906000526020600020905b8154815260200190600101908083116108b2575b505050505081526020016005820160009054906101000a900460ff161515151581526020016005820160019054906101000a900460ff161515151581526020016005820160029054906101000a900460ff1615151515815260200160068201548152602001600782015481526020016008820160009054906101000a900473ffffffffffffffffffffffffffffffffffffffff1673ffffffffffffffffffffffffffffffffffffffff1673ffffffffffffffffffffffffffffffffffffffff1681526020016008820160149054906101000a900460ff16151515158152602001600982016040518060800160405290816000820154815260200160018201548152602001600282015481526020016003820154815250508152602001600d82018054600181600116156101000203166002900480601f016020809104026020016040519081016040528092919081815260200182805460018160011615610100020316600290048015610a7a5780601f10610a4f57610100808354040283529160200191610a7a565b820191906000526020600020905b815481529060010190602001808311610a5d57829003601f168201915b505050505081525050828281518110610a8f57fe5b60200260200101819052508080600101915050610740565b508091505090565b806001600082815260200190815260200160002060070154600160008381526020019081526020016000206006015401341015610b21576040517f08c379a0000000000000000000000000000000000000000000000000000000008152600401610b18906143d9565b60405180910390fd5b610b2a8261303c565b80610b76575081600260003373ffffffffffffffffffffffffffffffffffffffff1673ffffffffffffffffffffffffffffffffffffffff16815260200190815260200160002060000154145b610b7f57600080fd5b6040518060a001604052806001600085815260200190815260200160002060080160009054906101000a900473ffffffffffffffffffffffffffffffffffffffff1673ffffffffffffffffffffffffffffffffffffffff1681526020013373ffffffffffffffffffffffffffffffffffffffff168152602001600160008581526020019081526020016000206006015481526020016001600085815260200190815260200160002060070154815260200160011515815250600360006001600086815260200190815260200160002060080160009054906101000a900473ffffffffffffffffffffffffffffffffffffffff1673ffffffffffffffffffffffffffffffffffffffff1673ffffffffffffffffffffffffffffffffffffffff1681526020019081526020016000206000600654815260200190815260200160002060008201518160000160006101000a81548173ffffffffffffffffffffffffffffffffffffffff021916908373ffffffffffffffffffffffffffffffffffffffff16021790555060208201518160010160006101000a81548173ffffffffffffffffffffffffffffffffffffffff021916908373ffffffffffffffffffffffffffffffffffffffff160217905550604082015181600201556060820151816003015560808201518160040160006101000a81548160ff02191690831515021790555090505060066000815480929190600101919050555060016000838152602001908152602001600020600901600201544201600160008481526020019081526020016000206009016003018190555060405180608001604052808381526020016001151581526020016001151581526020013373ffffffffffffffffffffffffffffffffffffffff16815250600260003373ffffffffffffffffffffffffffffffffffffffff1673ffffffffffffffffffffffffffffffffffffffff1681526020019081526020016000206000820151816000015560208201518160010160006101000a81548160ff02191690831515021790555060408201518160010160016101000a81548160ff02191690831515021790555060608201518160010160026101000a81548173ffffffffffffffffffffffffffffffffffffffff021916908373ffffffffffffffffffffffffffffffffffffffff160217905550905050600060016000848152602001908152602001600020600901600101819055505050565b6060600260003373ffffffffffffffffffffffffffffffffffffffff1673ffffffffffffffffffffffffffffffffffffffff16815260200190815260200160002060010160009054906101000a900460ff16156110ec576000600260003373ffffffffffffffffffffffffffffffffffffffff1673ffffffffffffffffffffffffffffffffffffffff16815260200190815260200160002060000154905060006001600083815260200190815260200160002060090160010154118015610fe15750600160008281526020019081526020016000206009016001015442105b15611024576040518060400160405280600981526020017f696e526573657276650000000000000000000000000000000000000000000000815250915050611125565b600060016000600260003373ffffffffffffffffffffffffffffffffffffffff1673ffffffffffffffffffffffffffffffffffffffff168152602001908152602001600020600001548152602001908152602001600020600901600301541180156110a75750600160008281526020019081526020016000206009016003015442105b156110ea576040518060400160405280600781526020017f696e4c6561736500000000000000000000000000000000000000000000000000815250915050611125565b505b6040518060400160405280600581526020017f696e4d617000000000000000000000000000000000000000000000000000000081525090505b90565b600160008c815260200190815260200160002060080160009054906101000a900473ffffffffffffffffffffffffffffffffffffffff168073ffffffffffffffffffffffffffffffffffffffff163373ffffffffffffffffffffffffffffffffffffffff16146111cd576040517f08c379a00000000000000000000000000000000000000000000000000000000081526004016111c4906143b9565b60405180910390fd5b8a600160008e815260200190815260200160002060010190805190602001906111f79291906135bf565b5089600160008e8152602001908152602001600020600201908051906020019061122292919061363f565b5088600160008e8152602001908152602001600020600401908051906020019061124d92919061368c565b5087600160008e815260200190815260200160002060050160006101000a81548160ff02191690831515021790555086600160008e815260200190815260200160002060050160016101000a81548160ff02191690831515021790555085600160008e815260200190815260200160002060050160026101000a81548160ff02191690831515021790555060018502600160008e81526020019081526020016000206006018190555060018402600160008e81526020019081526020016000206007018190555082600160008e81526020019081526020016000206009016000820151816000015560208201518160010155604082015181600201556060820151816003015590505081600160008e8152602001908152602001600020600d0190805190602001906113809291906135bf565b50505050505050505050505050565b604051806101c0016040528060055481526020018c81526020018b8152602001600581526020018a81526020018915158152602001881515815260200187151581526020016001870281526020016001860281526020013373ffffffffffffffffffffffffffffffffffffffff16815260200184151581526020018381526020018281525060016000600554815260200190815260200160002060008201518160000155602082015181600101908051906020019061144f9291906135bf565b50604082015181600201908051906020019061146c92919061363f565b5060608201518160030155608082015181600401908051906020019061149392919061368c565b5060a08201518160050160006101000a81548160ff02191690831515021790555060c08201518160050160016101000a81548160ff02191690831515021790555060e08201518160050160026101000a81548160ff021916908315150217905550610100820151816006015561012082015181600701556101408201518160080160006101000a81548173ffffffffffffffffffffffffffffffffffffffff021916908373ffffffffffffffffffffffffffffffffffffffff1602179055506101608201518160080160146101000a81548160ff021916908315150217905550610180820151816009016000820151816000015560208201518160010155604082015181600201556060820151816003015550506101a082015181600d0190805190602001906115c49291906135bf565b50905050600560008154809291906001019190505550600460003373ffffffffffffffffffffffffffffffffffffffff1673ffffffffffffffffffffffffffffffffffffffff168152602001908152602001600020600081548092919060010191905055505050505050505050505050565b8060016000828152602001908152602001600020600701546001600083815260200190815260200160002060060154013410156116a8576040517f08c379a000000000000000000000000000000000000000000000000000000000815260040161169f906143d9565b60405180910390fd5b6116b18261303c565b806116fd575081600260003373ffffffffffffffffffffffffffffffffffffffff1673ffffffffffffffffffffffffffffffffffffffff16815260200190815260200160002060000154145b61170657600080fd5b6001600083815260200190815260200160002060060154600360006001600086815260200190815260200160002060080160009054906101000a900473ffffffffffffffffffffffffffffffffffffffff1673ffffffffffffffffffffffffffffffffffffffff1673ffffffffffffffffffffffffffffffffffffffff16815260200190815260200160002060006006548152602001908152602001600020600201600082825401925050819055506001600083815260200190815260200160002060070154600360006001600086815260200190815260200160002060080160009054906101000a900473ffffffffffffffffffffffffffffffffffffffff1673ffffffffffffffffffffffffffffffffffffffff1673ffffffffffffffffffffffffffffffffffffffff16815260200190815260200160002060006006548152602001908152602001600020600301600082825401925050819055506001600083815260200190815260200160002060090160020154420160016000848152602001908152602001600020600901600301819055505050565b806118ab8161303c565b8061194f575080600260003373ffffffffffffffffffffffffffffffffffffffff1673ffffffffffffffffffffffffffffffffffffffff1681526020019081526020016000206000015414801561194e5750600260003373ffffffffffffffffffffffffffffffffffffffff1673ffffffffffffffffffffffffffffffffffffffff16815260200190815260200160002060010160009054906101000a900460ff165b5b61198e576040517f08c379a0000000000000000000000000000000000000000000000000000000008152600401611985906143f9565b60405180910390fd5b60001515600260003373ffffffffffffffffffffffffffffffffffffffff1673ffffffffffffffffffffffffffffffffffffffff16815260200190815260200160002060010160019054906101000a900460ff161515146119ee57600080fd5b60006001600084815260200190815260200160002060090160010181905550600260003373ffffffffffffffffffffffffffffffffffffffff1673ffffffffffffffffffffffffffffffffffffffff1681526020019081526020016000206000808201600090556001820160006101000a81549060ff02191690556001820160016101000a81549060ff02191690556001820160026101000a81549073ffffffffffffffffffffffffffffffffffffffff021916905550505050565b611ab38161303c565b611abc57600080fd5b60016000828152602001908152602001600020600901600001544201600160008381526020019081526020016000206009016001018190555060405180608001604052808281526020016001151581526020016000151581526020013373ffffffffffffffffffffffffffffffffffffffff16815250600260003373ffffffffffffffffffffffffffffffffffffffff1673ffffffffffffffffffffffffffffffffffffffff1681526020019081526020016000206000820151816000015560208201518160010160006101000a81548160ff02191690831515021790555060408201518160010160016101000a81548160ff02191690831515021790555060608201518160010160026101000a81548173ffffffffffffffffffffffffffffffffffffffff021916908373ffffffffffffffffffffffffffffffffffffffff1602179055509050506000600160008381526020019081526020016000206009016003018190555050565b611c2f61352c565b60016000838152602001908152602001600020604051806101c001604052908160008201548152602001600182018054600181600116156101000203166002900480601f016020809104026020016040519081016040528092919081815260200182805460018160011615610100020316600290048015611cf15780601f10611cc657610100808354040283529160200191611cf1565b820191906000526020600020905b815481529060010190602001808311611cd457829003601f168201915b5050505050815260200160028201805480602002602001604051908101604052809291908181526020018280548015611d4957602002820191906000526020600020905b815481526020019060010190808311611d35575b505050505081526020016003820154815260200160048201805480602002602001604051908101604052809291908181526020018280548015611dab57602002820191906000526020600020905b815481526020019060010190808311611d97575b505050505081526020016005820160009054906101000a900460ff161515151581526020016005820160019054906101000a900460ff161515151581526020016005820160029054906101000a900460ff1615151515815260200160068201548152602001600782015481526020016008820160009054906101000a900473ffffffffffffffffffffffffffffffffffffffff1673ffffffffffffffffffffffffffffffffffffffff1673ffffffffffffffffffffffffffffffffffffffff1681526020016008820160149054906101000a900460ff16151515158152602001600982016040518060800160405290816000820154815260200160018201548152602001600282015481526020016003820154815250508152602001600d82018054600181600116156101000203166002900480601f016020809104026020016040519081016040528092919081815260200182805460018160011615610100020316600290048015611f5f5780601f10611f3457610100808354040283529160200191611f5f565b820191906000526020600020905b815481529060010190602001808311611f4257829003601f168201915b5050505050815250509050919050565b6003602052816000526040600020602052806000526040600020600091509150508060000160009054906101000a900473ffffffffffffffffffffffffffffffffffffffff16908060010160009054906101000a900473ffffffffffffffffffffffffffffffffffffffff16908060020154908060030154908060040160009054906101000a900460ff16905085565b60026020528060005260406000206000915090508060000154908060010160009054906101000a900460ff16908060010160019054906101000a900460ff16908060010160029054906101000a900473ffffffffffffffffffffffffffffffffffffffff16905084565b6060600267ffffffffffffffff8111801561208357600080fd5b506040519080825280602002602001820160405280156120b25781602001602082028036833780820191505090505b5090506014816000815181106120c457fe5b602002602001018181525050601e816001815181106120df57fe5b6020026020010181815250506060600267ffffffffffffffff8111801561210557600080fd5b506040519080825280602002602001820160405280156121345781602001602082028036833780820191505090505b50905060088160008151811061214657fe5b60200260200101818152505060128160018151811061216157fe5b6020026020010181815250506121756136d9565b60405180608001604052806014815260200160008152602001603c815260200160008152509050604051806101c0016040528060055481526020016040518060400160405280600481526020017f5465737400000000000000000000000000000000000000000000000000000000815250815260200184815260200160058152602001838152602001600015158152602001600015158152602001600015158152602001670de0b6b3a76400008152602001671bc16d674ec8000081526020013373ffffffffffffffffffffffffffffffffffffffff1681526020016001151581526020018281526020016040518060c00160405280608681526020016147f8608691398152506001600060055481526020019081526020016000206000820151816000015560208201518160010190805190602001906122b79291906135bf565b5060408201518160020190805190602001906122d492919061363f565b506060820151816003015560808201518160040190805190602001906122fb92919061368c565b5060a08201518160050160006101000a81548160ff02191690831515021790555060c08201518160050160016101000a81548160ff02191690831515021790555060e08201518160050160026101000a81548160ff021916908315150217905550610100820151816006015561012082015181600701556101408201518160080160006101000a81548173ffffffffffffffffffffffffffffffffffffffff021916908373ffffffffffffffffffffffffffffffffffffffff1602179055506101608201518160080160146101000a81548160ff021916908315150217905550610180820151816009016000820151816000015560208201518160010155604082015181600201556060820151816003015550506101a082015181600d01908051906020019061242c9291906135bf565b50905050600560008154809291906001019190505550600460003373ffffffffffffffffffffffffffffffffffffffff1673ffffffffffffffffffffffffffffffffffffffff16815260200190815260200160002060008154809291906001019190505550505050565b60046020528060005260406000206000915090505481565b60005b600654811015612840573373ffffffffffffffffffffffffffffffffffffffff166108fc600360003373ffffffffffffffffffffffffffffffffffffffff1673ffffffffffffffffffffffffffffffffffffffff1681526020019081526020016000206000848152602001908152602001600020600201549081150290604051600060405180830381858888f19350505050158015612554573d6000803e3d6000fd5b50600360003373ffffffffffffffffffffffffffffffffffffffff1673ffffffffffffffffffffffffffffffffffffffff168152602001908152602001600020600082815260200190815260200160002060010160009054906101000a900473ffffffffffffffffffffffffffffffffffffffff1673ffffffffffffffffffffffffffffffffffffffff166108fc600360003373ffffffffffffffffffffffffffffffffffffffff1673ffffffffffffffffffffffffffffffffffffffff1681526020019081526020016000206000848152602001908152602001600020600301549081150290604051600060405180830381858888f19350505050158015612661573d6000803e3d6000fd5b50600360003373ffffffffffffffffffffffffffffffffffffffff1673ffffffffffffffffffffffffffffffffffffffff1681526020019081526020016000206000828152602001908152602001600020600080820160006101000a81549073ffffffffffffffffffffffffffffffffffffffff02191690556001820160006101000a81549073ffffffffffffffffffffffffffffffffffffffff0219169055600282016000905560038201600090556004820160006101000a81549060ff0219169055505060026000600360003373ffffffffffffffffffffffffffffffffffffffff1673ffffffffffffffffffffffffffffffffffffffff168152602001908152602001600020600084815260200190815260200160002060010160009054906101000a900473ffffffffffffffffffffffffffffffffffffffff1673ffffffffffffffffffffffffffffffffffffffff1673ffffffffffffffffffffffffffffffffffffffff1681526020019081526020016000206000808201600090556001820160006101000a81549060ff02191690556001820160016101000a81549060ff02191690556001820160026101000a81549073ffffffffffffffffffffffffffffffffffffffff0219169055505080806001019150506124b1565b50565b61284b61352c565b60016000600260003373ffffffffffffffffffffffffffffffffffffffff1673ffffffffffffffffffffffffffffffffffffffff168152602001908152602001600020600001548152602001908152602001600020604051806101c001604052908160008201548152602001600182018054600181600116156101000203166002900480601f01602080910402602001604051908101604052809291908181526020018280546001816001161561010002031660029004801561294f5780601f106129245761010080835404028352916020019161294f565b820191906000526020600020905b81548152906001019060200180831161293257829003601f168201915b50505050508152602001600282018054806020026020016040519081016040528092919081815260200182805480156129a757602002820191906000526020600020905b815481526020019060010190808311612993575b505050505081526020016003820154815260200160048201805480602002602001604051908101604052809291908181526020018280548015612a0957602002820191906000526020600020905b8154815260200190600101908083116129f5575b505050505081526020016005820160009054906101000a900460ff161515151581526020016005820160019054906101000a900460ff161515151581526020016005820160029054906101000a900460ff1615151515815260200160068201548152602001600782015481526020016008820160009054906101000a900473ffffffffffffffffffffffffffffffffffffffff1673ffffffffffffffffffffffffffffffffffffffff1673ffffffffffffffffffffffffffffffffffffffff1681526020016008820160149054906101000a900460ff16151515158152602001600982016040518060800160405290816000820154815260200160018201548152602001600282015481526020016003820154815250508152602001600d82018054600181600116156101000203166002900480601f016020809104026020016040519081016040528092919081815260200182805460018160011615610100020316600290048015612bbd5780601f10612b9257610100808354040283529160200191612bbd565b820191906000526020600020905b815481529060010190602001808311612ba057829003601f168201915b505050505081525050905090565b6001600082815260200190815260200160002060080160009054906101000a900473ffffffffffffffffffffffffffffffffffffffff168073ffffffffffffffffffffffffffffffffffffffff163373ffffffffffffffffffffffffffffffffffffffff1614612c70576040517f08c379a0000000000000000000000000000000000000000000000000000000008152600401612c67906143b9565b60405180910390fd5b612c798261303c565b612c8257600080fd5b6001600083815260200190815260200160002060080160149054906101000a900460ff16156001600084815260200190815260200160002060080160146101000a81548160ff0219169083151502179055505050565b81612ce28161303c565b80612d86575080600260003373ffffffffffffffffffffffffffffffffffffffff1673ffffffffffffffffffffffffffffffffffffffff16815260200190815260200160002060000154148015612d855750600260003373ffffffffffffffffffffffffffffffffffffffff1673ffffffffffffffffffffffffffffffffffffffff16815260200190815260200160002060010160009054906101000a900460ff165b5b612dc5576040517f08c379a0000000000000000000000000000000000000000000000000000000008152600401612dbc906143f9565b60405180910390fd5b600060016000858152602001908152602001600020600901600301819055506005821115612df65760059150612e05565b6001821015612e0457600191505b5b60026001600085815260200190815260200160002060030154830181612e2757fe5b046001600085815260200190815260200160002060030181905550600260003373ffffffffffffffffffffffffffffffffffffffff1673ffffffffffffffffffffffffffffffffffffffff1681526020019081526020016000206000808201600090556001820160006101000a81549060ff02191690556001820160016101000a81549060ff02191690556001820160026101000a81549073ffffffffffffffffffffffffffffffffffffffff02191690555050505050565b60001515600260003373ffffffffffffffffffffffffffffffffffffffff1673ffffffffffffffffffffffffffffffffffffffff16815260200190815260200160002060010160019054906101000a900460ff16151514612f4057600080fd5b600060016000600260003373ffffffffffffffffffffffffffffffffffffffff1673ffffffffffffffffffffffffffffffffffffffff16815260200190815260200160002060000154815260200190815260200160002060090160010181905550600260003373ffffffffffffffffffffffffffffffffffffffff1673ffffffffffffffffffffffffffffffffffffffff1681526020019081526020016000206000808201600090556001820160006101000a81549060ff02191690556001820160016101000a81549060ff02191690556001820160026101000a81549073ffffffffffffffffffffffffffffffffffffffff02191690555050565b600060016000838152602001908152602001600020600901600101544211801561307e5750600160008381526020019081526020016000206009016003015442115b80156130aa57506001600083815260200190815260200160002060080160149054906101000a900460ff165b9050919050565b606080600460003373ffffffffffffffffffffffffffffffffffffffff1673ffffffffffffffffffffffffffffffffffffffff1681526020019081526020016000205467ffffffffffffffff8111801561310a57600080fd5b5060405190808252806020026020018201604052801561314457816020015b61313161352c565b8152602001906001900390816131295790505b5090506000805b600554811015613523573373ffffffffffffffffffffffffffffffffffffffff166001600083815260200190815260200160002060080160009054906101000a900473ffffffffffffffffffffffffffffffffffffffff1673ffffffffffffffffffffffffffffffffffffffff1614156135165760016000828152602001908152602001600020604051806101c001604052908160008201548152602001600182018054600181600116156101000203166002900480601f0160208091040260200160405190810160405280929190818152602001828054600181600116156101000203166002900480156132815780601f1061325657610100808354040283529160200191613281565b820191906000526020600020905b81548152906001019060200180831161326457829003601f168201915b50505050508152602001600282018054806020026020016040519081016040528092919081815260200182805480156132d957602002820191906000526020600020905b8154815260200190600101908083116132c5575b50505050508152602001600382015481526020016004820180548060200260200160405190810160405280929190818152602001828054801561333b57602002820191906000526020600020905b815481526020019060010190808311613327575b505050505081526020016005820160009054906101000a900460ff161515151581526020016005820160019054906101000a900460ff161515151581526020016005820160029054906101000a900460ff1615151515815260200160068201548152602001600782015481526020016008820160009054906101000a900473ffffffffffffffffffffffffffffffffffffffff1673ffffffffffffffffffffffffffffffffffffffff1673ffffffffffffffffffffffffffffffffffffffff1681526020016008820160149054906101000a900460ff16151515158152602001600982016040518060800160405290816000820154815260200160018201548152602001600282015481526020016003820154815250508152602001600d82018054600181600116156101000203166002900480601f0160208091040260200160405190810160405280929190818152602001828054600181600116156101000203166002900480156134ef5780601f106134c4576101008083540402835291602001916134ef565b820191906000526020600020905b8154815290600101906020018083116134d257829003601f168201915b50505050508152505083838060010194508151811061350a57fe5b60200260200101819052505b808060010191505061314b565b50819250505090565b604051806101c0016040528060008152602001606081526020016060815260200160008152602001606081526020016000151581526020016000151581526020016000151581526020016000815260200160008152602001600073ffffffffffffffffffffffffffffffffffffffff1681526020016000151581526020016135b26136d9565b8152602001606081525090565b828054600181600116156101000203166002900490600052602060002090601f016020900481019282601f1061360057805160ff191683800117855561362e565b8280016001018555821561362e579182015b8281111561362d578251825591602001919060010190613612565b5b50905061363b9190613701565b5090565b82805482825590600052602060002090810192821561367b579160200282015b8281111561367a57825182559160200191906001019061365f565b5b509050613688919061371e565b5090565b8280548282559060005260206000209081019282156136c8579160200282015b828111156136c75782518255916020019190600101906136ac565b5b5090506136d59190613701565b5090565b6040518060800160405280600081526020016000815260200160008152602001600081525090565b5b8082111561371a576000816000905550600101613702565b5090565b5b8082111561373757600081600090555060010161371f565b5090565b60008135905061374a8161479b565b92915050565b600082601f83011261376157600080fd5b813561377461376f82614590565b614563565b9150818183526020840193506020810190508385602084028201111561379957600080fd5b60005b838110156137c957816137af888261386b565b84526020840193506020830192505060018101905061379c565b5050505092915050565b600082601f8301126137e457600080fd5b81356137f76137f2826145b8565b614563565b9150818183526020840193506020810190508385602084028201111561381c57600080fd5b60005b8381101561384c57816138328882613948565b84526020840193506020830192505060018101905061381f565b5050505092915050565b600081359050613865816147b2565b92915050565b60008135905061387a816147c9565b92915050565b600082601f83011261389157600080fd5b81356138a461389f826145e0565b614563565b915080825260208301602083018583830111156138c057600080fd5b6138cb838284614748565b50505092915050565b6000608082840312156138e657600080fd5b6138f06080614563565b9050600061390084828501613948565b600083015250602061391484828501613948565b602083015250604061392884828501613948565b604083015250606061393c84828501613948565b60608301525092915050565b600081359050613957816147e0565b92915050565b60006020828403121561396f57600080fd5b600061397d8482850161373b565b91505092915050565b6000806040838503121561399957600080fd5b60006139a78582860161373b565b92505060206139b885828601613948565b9150509250929050565b60008060008060008060008060008060006101c08c8e0312156139e457600080fd5b60008c013567ffffffffffffffff8111156139fe57600080fd5b613a0a8e828f01613880565b9b505060208c013567ffffffffffffffff811115613a2757600080fd5b613a338e828f01613750565b9a505060408c013567ffffffffffffffff811115613a5057600080fd5b613a5c8e828f016137d3565b9950506060613a6d8e828f01613856565b9850506080613a7e8e828f01613856565b97505060a0613a8f8e828f01613856565b96505060c0613aa08e828f01613948565b95505060e0613ab18e828f01613948565b945050610100613ac38e828f01613856565b935050610120613ad58e828f016138d4565b9250506101a08c013567ffffffffffffffff811115613af357600080fd5b613aff8e828f01613880565b9150509295989b509295989b9093969950565b600060208284031215613b2457600080fd5b6000613b3284828501613948565b91505092915050565b60008060008060008060008060008060006101c08c8e031215613b5d57600080fd5b6000613b6b8e828f01613948565b9b505060208c013567ffffffffffffffff811115613b8857600080fd5b613b948e828f01613880565b9a505060408c013567ffffffffffffffff811115613bb157600080fd5b613bbd8e828f01613750565b99505060608c013567ffffffffffffffff811115613bda57600080fd5b613be68e828f016137d3565b9850506080613bf78e828f01613856565b97505060a0613c088e828f01613856565b96505060c0613c198e828f01613856565b95505060e0613c2a8e828f01613948565b945050610100613c3c8e828f01613948565b935050610120613c4e8e828f016138d4565b9250506101a08c013567ffffffffffffffff811115613c6c57600080fd5b613c788e828f01613880565b9150509295989b509295989b9093969950565b60008060408385031215613c9e57600080fd5b6000613cac85828601613948565b9250506020613cbd85828601613948565b9150509250929050565b6000613cd38383613e78565b60208301905092915050565b6000613ceb8383614063565b905092915050565b6000613cff83836142e9565b60208301905092915050565b613d14816146f6565b82525050565b613d23816146f6565b82525050565b6000613d348261463c565b613d3e818561468f565b9350613d498361460c565b8060005b83811015613d7a578151613d618882613cc7565b9750613d6c83614668565b925050600181019050613d4d565b5085935050505092915050565b6000613d9282614647565b613d9c81856146a0565b935083602082028501613dae8561461c565b8060005b85811015613dea5784840389528151613dcb8582613cdf565b9450613dd683614675565b925060208a01995050600181019050613db2565b50829750879550505050505092915050565b6000613e0782614652565b613e1181856146b1565b9350613e1c8361462c565b8060005b83811015613e4d578151613e348882613cf3565b9750613e3f83614682565b925050600181019050613e20565b5085935050505092915050565b613e6381614708565b82525050565b613e7281614708565b82525050565b613e8181614714565b82525050565b6000613e928261465d565b613e9c81856146c2565b9350613eac818560208601614757565b613eb58161478a565b840191505092915050565b6000613ecb8261465d565b613ed581856146d3565b9350613ee5818560208601614757565b613eee8161478a565b840191505092915050565b6000613f066013836146d3565b91507f43616c6c6572206973206e6f74206f776e6572000000000000000000000000006000830152602082019050919050565b6000613f46600f836146d3565b91507f42616c616e6365206973206c6f772e00000000000000000000000000000000006000830152602082019050919050565b6000613f866012836146d3565b91507f43616c6c6572206973206e6f74207573657200000000000000000000000000006000830152602082019050919050565b608082016000820151613fcf60008501826142e9565b506020820151613fe260208501826142e9565b506040820151613ff560408501826142e9565b50606082015161400860608501826142e9565b50505050565b60808201600082015161402460008501826142e9565b50602082015161403760208501826142e9565b50604082015161404a60408501826142e9565b50606082015161405d60608501826142e9565b50505050565b60006102208301600083015161407c60008601826142e9565b50602083015184820360208601526140948282613e87565b915050604083015184820360408601526140ae8282613d29565b91505060608301516140c360608601826142e9565b50608083015184820360808601526140db8282613dfc565b91505060a08301516140f060a0860182613e5a565b5060c083015161410360c0860182613e5a565b5060e083015161411660e0860182613e5a565b5061010083015161412b6101008601826142e9565b506101208301516141406101208601826142e9565b50610140830151614155610140860182613d0b565b5061016083015161416a610160860182613e5a565b5061018083015161417f610180860182613fb9565b506101a08301518482036102008601526141998282613e87565b9150508091505092915050565b6000610220830160008301516141bf60008601826142e9565b50602083015184820360208601526141d78282613e87565b915050604083015184820360408601526141f18282613d29565b915050606083015161420660608601826142e9565b506080830151848203608086015261421e8282613dfc565b91505060a083015161423360a0860182613e5a565b5060c083015161424660c0860182613e5a565b5060e083015161425960e0860182613e5a565b5061010083015161426e6101008601826142e9565b506101208301516142836101208601826142e9565b50610140830151614298610140860182613d0b565b506101608301516142ad610160860182613e5a565b506101808301516142c2610180860182613fb9565b506101a08301518482036102008601526142dc8282613e87565b9150508091505092915050565b6142f28161473e565b82525050565b6143018161473e565b82525050565b600060a08201905061431c6000830188613d1a565b6143296020830187613d1a565b61433660408301866142f8565b61434360608301856142f8565b6143506080830184613e69565b9695505050505050565b600060208201905081810360008301526143748184613d87565b905092915050565b60006020820190506143916000830184613e69565b92915050565b600060208201905081810360008301526143b18184613ec0565b905092915050565b600060208201905081810360008301526143d281613ef9565b9050919050565b600060208201905081810360008301526143f281613f39565b9050919050565b6000602082019050818103600083015261441281613f79565b9050919050565b6000602082019050818103600083015261443381846141a6565b905092915050565b600060208201905061445060008301846142f8565b92915050565b600060808201905061446b60008301876142f8565b6144786020830186613e69565b6144856040830185613e69565b6144926060830184613d1a565b95945050505050565b60006101e0820190506144b1600083018f6142f8565b81810360208301526144c3818e613ec0565b90506144d2604083018d6142f8565b6144df606083018c613e69565b6144ec608083018b613e69565b6144f960a083018a613e69565b61450660c08301896142f8565b61451360e08301886142f8565b614521610100830187613d1a565b61452f610120830186613e69565b61453d61014083018561400e565b8181036101c08301526145508184613ec0565b90509d9c50505050505050505050505050565b6000604051905081810181811067ffffffffffffffff8211171561458657600080fd5b8060405250919050565b600067ffffffffffffffff8211156145a757600080fd5b602082029050602081019050919050565b600067ffffffffffffffff8211156145cf57600080fd5b602082029050602081019050919050565b600067ffffffffffffffff8211156145f757600080fd5b601f19601f8301169050602081019050919050565b6000819050602082019050919050565b6000819050602082019050919050565b6000819050602082019050919050565b600081519050919050565b600081519050919050565b600081519050919050565b600081519050919050565b6000602082019050919050565b6000602082019050919050565b6000602082019050919050565b600082825260208201905092915050565b600082825260208201905092915050565b600082825260208201905092915050565b600082825260208201905092915050565b600082825260208201905092915050565b60006146ef8261471e565b9050919050565b60006147018261471e565b9050919050565b60008115159050919050565b6000819050919050565b600073ffffffffffffffffffffffffffffffffffffffff82169050919050565b6000819050919050565b82818337600083830152505050565b60005b8381101561477557808201518184015260208101905061475a565b83811115614784576000848401525b50505050565b6000601f19601f8301169050919050565b6147a4816146e4565b81146147af57600080fd5b50565b6147bb81614708565b81146147c657600080fd5b50565b6147d281614714565b81146147dd57600080fd5b50565b6147e98161473e565b81146147f457600080fd5b5056fe68747470733a2f2f7777772e6e6a75736b616c6f2e68722f696d6167652d77393230783639302f6e656b7265746e696e652f676172617a612d73706c69742d626c6174696e652d31392d6d322d676172617a612d31326d322d7061726b696e672d6d6a6573746f2d6973707265642d6761722d736c696b612d3131323331323930352e6a7067a26469706673582212207d0d3b33f077846e0b5bae3b1d81f828f4d2467b03564aff0b8d730a0685babc64736f6c63430007000033",
  "immutableReferences": {},
  "source": "// SPDX-License-Identifier: MIT\r\npragma solidity >=0.7.0 <0.8.0;\r\npragma experimental ABIEncoderV2;\r\n\r\ncontract ParkingBooks {\r\n\r\n    address payable private admin;\r\n     // modifier to check if caller is owner\r\n    modifier isAdmin() {\r\n        require(msg.sender == admin, \"Caller is not admin\");\r\n        _;\r\n    }\r\n    // event for EVM logging\r\n    event AdminSet(address indexed oldAdmin, address indexed newAdmin);\r\n    /**\r\n     * @dev Set contract deployer as owner\r\n     */\r\n    constructor() {\r\n        admin = msg.sender; // 'msg.sender' is sender of current call, contract deployer for a constructor\r\n        emit AdminSet(address(0), admin);\r\n    }\r\n\r\n    struct ParkingTime{\r\n      uint waitReserve;\r\n      uint endReserve;\r\n      uint waitLease;\r\n      uint endLease;\r\n  }\r\n\r\n   struct Parking {\r\n       uint id;\r\n      string title;\r\n      int[] location;\r\n      uint score;\r\n      uint[] working_hours;\r\n      bool electric_support;\r\n      bool roof;\r\n      bool garage;\r\n      uint price; //number is saved times 100\r\n      uint deposit; //number is saved times 100\r\n      address payable owner;\r\n      bool enabled;\r\n      ParkingTime time;\r\n      string url;\r\n  }\r\n\r\n  struct User{\r\n      uint parking_id;\r\n      bool hasAccess;\r\n      bool leased;\r\n      address payable user;\r\n  }\r\n\r\n    struct Deposit{\r\n        address payable owner;\r\n        address payable user;\r\n        uint price;\r\n        uint deposit;\r\n        bool returnToUser;\r\n    }\r\n\r\n  mapping(uint => Parking) public parkings;\r\n  mapping(address => User) public users;\r\n  mapping(address => mapping(uint => Deposit)) public owners;\r\n  mapping(address => uint) public ownsCount;\r\n\r\n  uint count = 0;\r\n  uint depositCount = 0;\r\n\r\n    modifier isOwner(address owner) {\r\n        require(msg.sender == owner, \"Caller is not owner\");\r\n        _;\r\n    }\r\n\r\n    modifier isUser(uint id) {\r\n        require(checkIfNotInUse(id) || (users[msg.sender].parking_id == id && users[msg.sender].hasAccess), \"Caller is not user\");\r\n        _;\r\n    }\r\n\r\n    function index() public view returns (Parking[] memory){\r\n        Parking[] memory ret = new Parking[](count);\r\n        for (uint i = 0; i < count; i++) {\r\n            ret[i] = parkings[i];\r\n        }\r\n        return ret;\r\n    }\r\n\r\n    function indexByOwner() public view returns (Parking[] memory){\r\n        Parking[] memory ret = new Parking[](ownsCount[msg.sender]);\r\n        uint temp_count = 0;\r\n        for (uint i = 0; i < count; i++) {\r\n            if(parkings[i].owner == msg.sender){\r\n                ret[temp_count++] = parkings[i];\r\n            }\r\n        }\r\n        return ret;\r\n    }\r\n\r\n    function show(uint id) public view returns (Parking memory){\r\n        return parkings[id];\r\n    }\r\n\r\n    function show() public view returns (Parking memory){\r\n        return parkings[users[msg.sender].parking_id];\r\n    }\r\n\r\n    function testStore() public {\r\n        int[] memory temp = new int[](2);\r\n        temp[0] = 20;\r\n        temp[1] = 30;\r\n        uint[] memory working = new uint[](2);\r\n        working[0] = 8;\r\n        working[1] = 18;\r\n        ParkingTime memory _time = ParkingTime({\r\n            waitReserve: 20 seconds,\r\n            endReserve: 0,\r\n            waitLease: 60 seconds,\r\n            endLease: 0\r\n        });\r\n        parkings[count] = Parking({\r\n            id: count,\r\n            title: 'Test',\r\n            location: temp,\r\n            score: 5,\r\n            working_hours: working,\r\n            electric_support: false,\r\n            roof: false,\r\n            garage: false,\r\n            price: 1 ether,\r\n            deposit: 2 ether,\r\n            owner: msg.sender,\r\n            enabled: true,\r\n            time: _time,\r\n            url: \"https://www.njuskalo.hr/image-w920x690/nekretnine/garaza-split-blatine-19-m2-garaza-12m2-parking-mjesto-ispred-gar-slika-112312905.jpg\"\r\n        });\r\n        count++;\r\n        ownsCount[msg.sender]++;\r\n    }\r\n\r\n    function store(string memory _title, int[] memory _location, uint[] memory _working_hours, bool _electric_support, bool _roof, bool _garage, uint _price, uint _deposit, bool _enabled, ParkingTime memory _time, string memory  _url) public {\r\n        parkings[count] = Parking({\r\n            id: count,\r\n            title: _title,\r\n            location: _location,\r\n            score: 5,\r\n            working_hours: _working_hours,\r\n            electric_support: _electric_support,\r\n            roof: _roof,\r\n            garage: _garage,\r\n            price: _price * 1 wei,\r\n            deposit: _deposit * 1 wei,\r\n            owner: msg.sender,\r\n            enabled: _enabled,\r\n            time: _time,\r\n            url: _url\r\n        });\r\n        count++;\r\n        ownsCount[msg.sender]++;\r\n    }\r\n\r\n    function update(uint id, string memory _title, int[] memory _location, uint[] memory _working_hours, bool _electric_support, bool _roof, bool _garage, uint _price, uint _deposit, ParkingTime memory _time, string memory _url) public isOwner(parkings[id].owner) {\r\n        parkings[id].title = _title;\r\n        parkings[id].location = _location;\r\n        parkings[id].working_hours = _working_hours;\r\n        parkings[id].electric_support = _electric_support;\r\n        parkings[id].roof = _roof;\r\n        parkings[id].garage = _garage;\r\n        parkings[id].price = _price * 1 wei;\r\n        parkings[id].deposit = _deposit * 1 wei;\r\n        parkings[id].time = _time;\r\n        parkings[id].url = _url;\r\n    }\r\n\r\n    function reserve(uint id) public {\r\n        require(checkIfNotInUse(id));\r\n        parkings[id].time.endReserve = block.timestamp+parkings[id].time.waitReserve;\r\n        users[msg.sender] = User({parking_id: id, hasAccess: true, leased: false, user: msg.sender});\r\n        parkings[id].time.endLease = 0;\r\n    }\r\n\r\n    function reserve_end(uint id) public isUser(id){\r\n        require(users[msg.sender].leased == false);\r\n        parkings[id].time.endReserve = 0;\r\n        delete users[msg.sender];\r\n    }\r\n\r\n    function reserve_end() public {\r\n        require(users[msg.sender].leased == false);\r\n        parkings[users[msg.sender].parking_id].time.endReserve = 0;\r\n        delete users[msg.sender];\r\n    }\r\n\r\n    function lease(uint id) public payable hasBalance(id) {\r\n        require(checkIfNotInUse(id) || users[msg.sender].parking_id == id);\r\n\r\n        owners[parkings[id].owner][depositCount] = Deposit({\r\n           owner: parkings[id].owner,\r\n           user: msg.sender,\r\n           returnToUser: true,\r\n           price: parkings[id].price,\r\n           deposit: parkings[id].deposit\r\n        });\r\n        depositCount++;\r\n        parkings[id].time.endLease = block.timestamp+parkings[id].time.waitLease;\r\n        users[msg.sender] = User({parking_id: id, hasAccess: true, leased: true, user: msg.sender});\r\n        parkings[id].time.endReserve = 0;\r\n    }\r\n\r\n    function leaseUpdate(uint id) public payable hasBalance(id) {\r\n        require(checkIfNotInUse(id) || users[msg.sender].parking_id == id);\r\n\r\n        owners[parkings[id].owner][depositCount].price += parkings[id].price;\r\n        owners[parkings[id].owner][depositCount].deposit += parkings[id].deposit;\r\n        parkings[id].time.endLease = block.timestamp+parkings[id].time.waitLease;\r\n    }\r\n\r\n    function lease_end(uint id, uint _score) public isUser(id){\r\n        parkings[id].time.endLease = 0;\r\n        if(_score > 5){\r\n            _score = 5;\r\n        }else if(_score < 1){\r\n          _score = 1;\r\n        }\r\n        parkings[id].score = (_score + parkings[id].score)/2;\r\n        delete users[msg.sender];\r\n    }\r\n\r\n    function resolveFunds() public {\r\n        for (uint i = 0; i < depositCount; i++) {\r\n            msg.sender.transfer(owners[msg.sender][i].price);\r\n            owners[msg.sender][i].user.transfer(owners[msg.sender][i].deposit);\r\n            delete owners[msg.sender][i];\r\n            delete users[owners[msg.sender][i].user];\r\n        }\r\n    }\r\n\r\n    function trunOnOff(uint id) public isOwner(parkings[id].owner) {\r\n        require(checkIfNotInUse(id));\r\n        parkings[id].enabled = !parkings[id].enabled;\r\n    }\r\n\r\n    function checkIfNotInUse(uint id) view public returns (bool) {\r\n        return (block.timestamp > parkings[id].time.endReserve && block.timestamp > parkings[id].time.endLease && parkings[id].enabled);\r\n    }\r\n\r\n    function checkStatus() view public returns (string memory){\r\n        if(users[msg.sender].hasAccess){\r\n            uint id = users[msg.sender].parking_id;\r\n            if(parkings[id].time.endReserve > 0 && block.timestamp < parkings[id].time.endReserve){\r\n                return \"inReserve\";\r\n            }else\r\n            if(parkings[users[msg.sender].parking_id].time.endLease > 0 && block.timestamp < parkings[id].time.endLease){\r\n                return \"inLease\";\r\n            }\r\n        }\r\n        return \"inMap\";\r\n\r\n    }\r\n\r\n    modifier hasBalance(uint id){\r\n        require(msg.value >= parkings[id].price+parkings[id].deposit, \"Balance is low.\");\r\n        _;\r\n    }\r\n\r\n\r\n}\r\n",
  "sourcePath": "E:/Vue/smart-parking/contracts/ParkingBooks.sol",
  "compiler": {
    "name": "solc",
    "version": "0.7.0+commit.9e61f92b.Emscripten.clang"
  },
  "schemaVersion": "3.2.3",
  "updatedAt": "2020-09-05T20:04:02.135Z",
  "networkType": "ethereum",
  "devdoc": {
    "kind": "dev",
    "methods": {
      "constructor": {
        "details": "Set contract deployer as owner"
      }
    },
    "version": 1
  },
  "userdoc": {
    "kind": "user",
    "methods": {},
    "version": 1
  }
}